:020000040800F2
:1080000000000220A5AF00081DA9000825A900084E
:108010002DA9000835A900083DA9000800000000AE
:1080200000000000000000000000000045A900085A
:1080300053A900080000000061A900086FA900080A
:10804000F5AF0008F5AF0008F5AF0008F5AF000880
:10805000F5AF0008F5AF0008F5AF0008F5AF000870
:10806000F5AF0008F5AF0008F5AF0008F5AF000860
:10807000F5AF0008F5AF0008F5AF0008F5AF000850
:10808000F5AF0008F5AF0008F5AF000800000000EC
:10809000000000000000000000000000F5AF000834
:1080A000F5AF0008F5AF0008F5AF0008F5AF000820
:1080B000F5AF0008F5AF00087DA90008F5AF00088E
:1080C000F5AF0008F5AF0008F5AF0008F5AF000800
:1080D000F5AF0008F5AF0008F5AF0008000000009C
:1080E000F5AF0008F5AF0008F5AF0008000000008C
:1080F000000000000000000000000000F5AF0008D4
:1081000000000000F5AF0008F5AF0008F5AF00086B
:10811000000000000000000000000000000000005F
:1081200091A90008F5AF0008F5AF0008F5AF000809
:10813000F5AF000800000000000000000000000093
:10814000000000000000000000000000A5A90008D9
:10815000F5AF0008F5AF0008F5AF0008F5AF00086F
:10816000F5AF0008F5AF00080000000000000000B7
:1081700000000000000000000000000000000000FF
:1081800000000000F5AF0008000000000000000043
:08819000F5AF0008F5AF00088F
:1081A00010B5054C237833B9044B13B10448AFF331
:1081B00000800123237010BDF002002000000000A9
:1081C000A069010808B5034B1BB103490348AFF38D
:1081D000008008BD00000000F4020020A069010832
:1081E00001F0FF01102A2BDB10F0070F08D010F868
:1081F000013B013A8B422DD010F0070F42B3F6D16C
:10820000F0B441EA012141EA014122F007047FF084
:1082100000070023F0E80256083C85EA010586EADB
:10822000010685FA47F5A3FA87F586FA47F6A5FA17
:1082300087F68EB9EED1F0BC01F0FF0102F0070223
:1082400032B110F8013B013A83EA010313B1F8D1CE
:108250000020704701387047002D06BF35460338AF
:10826000073815F0010F07D1013015F4807F02BFE8
:10827000013015F4C03F0130F0BC0138704700BF39
:10828000034613F8012B002AFBD1181A0138704756
:1082900081F0004102E000BF83F0004330B54FEAB7
:1082A00041044FEA430594EA050F08BF90EA020F24
:1082B0001FBF54EA000C55EA020C7FEA645C7FEAB7
:1082C000655C00F0E2804FEA5454D4EB5555B8BFDA
:1082D0006D420CDD2C4480EA020281EA030382EA4B
:1082E000000083EA010180EA020281EA0303362DDD
:1082F00088BF30BD11F0004F4FEA01314FF4801CB0
:108300004CEA113102D0404261EB410113F0004FC1
:108310004FEA03334CEA133302D0524263EB430378
:1083200094EA050F00F0A780A4F10104D5F1200E16
:108330000DDB02FA0EFC22FA05F2801841F1000171
:1083400003FA0EF2801843FA05F359410EE0A5F145
:1083500020050EF1200E012A03FA0EFC28BF4CF076
:10836000020C43FA05F3C01851EBE37101F000452C
:1083700007D54FF0000EDCF1000C7EEB00006EEB39
:108380000101B1F5801F1BD3B1F5001F0CD34908C3
:108390005FEA30004FEA3C0C04F101044FEA44521A
:1083A00012F5800F80F09A80BCF1004F08BF5FEAA1
:1083B000500C50F1000041EB045141EA050130BD81
:1083C0005FEA4C0C404141EB0101013C28BFB1F593
:1083D000801FE9D291F0000F04BF01460020B1FADE
:1083E00081F308BF2033A3F10B03B3F120020CDAB1
:1083F0000C3208DD02F1140CC2F10C0201FA0CF08F
:1084000021FA02F10CE002F11402D8BFC2F1200CF3
:1084100001FA02F120FA0CFCDCBF41EA0C019040A9
:10842000E41AA2BF01EB0451294330BD6FEA0404F2
:108430001F3C1CDA0C340EDC04F11404C4F12002DD
:1084400020FA04F001FA02F340EA030021FA04F3EF
:1084500045EA030130BDC4F10C04C4F1200220FA46
:1084600002F001FA04F340EA0300294630BD21FA84
:1084700004F0294630BD94F0000F83F4801306BF4A
:1084800081F480110134013D4EE77FEA645C18BF3E
:108490007FEA655C29D094EA050F08BF90EA020FD5
:1084A00005D054EA000C04BF1946104630BD91EACD
:1084B000030F1EBF0021002030BD5FEA545C05D1D0
:1084C0004000494128BF41F0004130BD14F580040F
:1084D0003CBF01F5801130BD01F0004545F0FE4183
:1084E00041F470014FF0000030BD7FEA645C1ABFB8
:1084F000194610467FEA655C1CBF0B46024650EAEF
:10850000013406BF52EA033591EA030F41F400211A
:1085100030BD00BF90F0000F04BF0021704730B5A0
:108520004FF4806404F132044FF000054FF0000175
:1085300050E700BF90F0000F04BF0021704730B536
:108540004FF4806404F1320410F0004548BF40420B
:108550004FF000013EE700BF42004FEAE2014FEA60
:1085600031014FEA02701FBF12F07F4393F07F4F3B
:1085700081F06051704732F07F4208BF704793F03E
:108580007F4F04BF41F40021704730B54FF4607451
:1085900001F0004521F000411CE700BF50EA010254
:1085A00008BF704730B54FF000050AE050EA0102FD
:1085B00008BF704730B511F0004502D5404261EB6D
:1085C00041014FF4806404F132045FEA915C3FF4AE
:1085D000D8AE4FF003025FEADC0C18BF03325FEA4B
:1085E000DC0C18BF033202EBDC02C2F1200300FAFC
:1085F00003FC20FA02F001FA03FE40EA0E0021FA21
:1086000002F11444BDE600BF70B54FF0FF0C4CF40E
:10861000E06C1CEA11541DBF1CEA135594EA0C0FC0
:1086200095EA0C0F00F0DEF82C4481EA030621EAFB
:108630004C5123EA4C5350EA013518BF52EA033536
:1086400041F4801143F4801338D0A0FB02CE4FF0E8
:108650000005E1FB02E506F00042E0FB03E54FF018
:108660000006E1FB03569CF0000F18BF4EF0010E10
:10867000A4F1FF04B6F5007F64F5407404D25FEA0C
:108680004E0E6D4146EB060642EAC62141EA5551BF
:108690004FEAC52040EA5E504FEACE2EB4F1FD0C01
:1086A00088BFBCF5E06F1ED8BEF1004F08BF5FEA7F
:1086B000500E50F1000041EB045170BD06F0004631
:1086C00046EA010140EA020081EA0301B4EB5C04DE
:1086D000C2BFD4EB0C0541EA045170BD41F48011D6
:1086E0004FF0000E013C00F3AB8014F1360FDEBFFB
:1086F000002001F0004170BDC4F10004203C35DAD7
:108700000C341BDC04F11404C4F1200500FA05F359
:1087100020FA04F001FA05F240EA020001F00042FA
:1087200021F0004110EBD37021FA04F642EB060170
:108730005EEA430E08BF20EAD37070BDC4F10C049A
:10874000C4F1200500FA04F320FA05F001FA04F25E
:1087500040EA020001F0004110EBD37041F100014A
:108760005EEA430E08BF20EAD37070BDC4F1200555
:1087700000FA05F24EEA020E20FA04F301FA05F2BD
:1087800043EA020321FA04F001F0004121FA04F265
:1087900020EA020000EBD3705EEA430E08BF20EA35
:1087A000D37070BD94F0000F0FD101F0004640006F
:1087B00041EB010111F4801F08BF013CF7D041EAF1
:1087C000060195F0000F18BF704703F000465200F5
:1087D00043EB030313F4801F08BF013DF7D043EAC6
:1087E0000603704794EA0C0F0CEA135518BF95EA7C
:1087F0000C0F0CD050EA410618BF52EA4306D1D103
:1088000081EA030101F000414FF0000070BD50EA21
:10881000410606BF1046194652EA430619D094EAAB
:108820000C0F02D150EA013613D195EA0C0F05D195
:1088300052EA03361CBF104619460AD181EA0301E9
:1088400001F0004141F0FE4141F470014FF00000A1
:1088500070BD41F0FE4141F4780170BD70B54FF03C
:10886000FF0C4CF4E06C1CEA11541DBF1CEA1355BC
:1088700094EA0C0F95EA0C0F00F0A7F8A4EB05049E
:1088800081EA030E52EA03354FEA013100F0888095
:108890004FEA03334FF0805545EA131343EA12635E
:1088A0004FEA022245EA111545EA10654FEA002613
:1088B0000EF000419D4208BF964244F1FD0404F5CC
:1088C000407402D25B084FEA3202B61A65EB030528
:1088D0005B084FEA32024FF480104FF4002CB6EBE5
:1088E000020E75EB030E22BFB61A754640EA0C0065
:1088F0005B084FEA3202B6EB020E75EB030E22BFA5
:10890000B61A754640EA5C005B084FEA3202B6EBE5
:10891000020E75EB030E22BFB61A754640EA9C00A4
:108920005B084FEA3202B6EB020E75EB030E22BF74
:10893000B61A754640EADC0055EA060E18D04FEA32
:10894000051545EA16754FEA06164FEAC30343EAD2
:1089500052734FEAC2025FEA1C1CC0D111F4801F9F
:108960000BD141EA00014FF000004FF0004CB6E798
:1089700011F4801F04BF01430020B4F1FD0C88BF37
:10898000BCF5E06F3FF6AFAEB5EB030C04BFB6EB42
:10899000020C5FEA500C50F1000041EB045170BD35
:1089A0000EF0004E4EEA113114EB5C04C2BFD4EB62
:1089B0000C0541EA045170BD41F480114FF0000EE6
:1089C000013C90E645EA060E8DE60CEA135594EA62
:1089D0000C0F08BF95EA0C0F3FF43BAF94EA0C0F65
:1089E0000AD150EA01347FF434AF95EA0C0F7FF4DA
:1089F00025AF104619462CE795EA0C0F06D152EA2E
:108A000003353FF4FDAE1046194622E750EA410611
:108A100018BF52EA43067FF4C5AE50EA41047FF422
:108A20000DAF52EA43057FF4EBAE12E74FF0FF3C87
:108A300006E000BF4FF0010C02E000BF4FF0010C58
:108A40004DF804CD4FEA410C7FEA6C5C4FEA430CD1
:108A500018BF7FEA6C5C1BD001B050EA410C0CBF20
:108A600052EA430C91EA030F02BF90EA020F002082
:108A7000704710F1000F91EA030F58BF994208BFE9
:108A800090422CBFD8176FEAE37040F001007047A6
:108A90004FEA410C7FEA6C5C02D150EA013C07D1FD
:108AA0004FEA430C7FEA6C5CD6D152EA033CD3D048
:108AB0005DF8040B704700BF8446104662468C4642
:108AC0001946634600E000BF01B5FFF7B7FF002875
:108AD00048BF10F1000F01BD4DF808EDFFF7F4FF9E
:108AE0000CBF012000205DF808FB00BF4DF808ED29
:108AF000FFF7EAFF34BF012000205DF808FB00BF4C
:108B00004DF808EDFFF7E0FF94BF012000205DF86D
:108B100008FB00BF4DF808EDFFF7CEFF94BF012022
:108B200000205DF808FB00BF4DF808EDFFF7C4FF1B
:108B300034BF012000205DF808FB00BF4FEA410C64
:108B40007FEA6C5C02D150EA013C0AD14FEA430C47
:108B50007FEA6C5C02D152EA033C02D14FF0000084
:108B600070474FF0010070474FEA410212F50012C2
:108B700015D211D56FF47873B3EB625212D94FEA64
:108B8000C12343F0004343EA505311F0004F23FA4E
:108B900002F018BF404270474FF00000704750EAA3
:108BA000013005D111F0004008BF6FF00040704760
:108BB0004FF00000704700BF4FEA4102B2F1E043BE
:108BC00024BFB3F5001CDCF1FE5C0DD901F0004CB4
:108BD0004FEAC0024CEA5070B2F1004F40EB830004
:108BE00008BF20F00100704711F0804F21D113F130
:108BF0003872BCBF01F00040704741F480114FEA69
:108C00005252C2F11802C2F1200C10FA0CF320FAF1
:108C100002F018BF40F001004FEAC1234FEAD3230E
:108C200003FA0CFC40EA0C0023FA02F34FEA430378
:108C3000CCE77FEA625307D150EA01331EBF4FF001
:108C4000FE4040F44000704701F0004040F0FE401C
:108C500040F40000704700BF53B94AB9002908BF6B
:108C600000281CBF4FF0FF314FF0FF3000F088B9F3
:108C7000ADF1080C6DE904CE00F006F8DDF804E073
:108C8000DDE9022304B070472DE9F047089D8E46C8
:108C900004468846002B4AD18A42174662D9B2FA66
:108CA00082F64EB1C6F1200301FA06F820FA03F36A
:108CB000B74043EA0808B4404FEA174E1FFA87FC52
:108CC000B8FBFEF1230C0EFB118843EA084301FBBD
:108CD0000CF29A4209D9FB1801F1FF3080F0EA80CA
:108CE0009A4240F2E78002393B449A1AA3B2B2FB9F
:108CF000FEF00EFB102243EA024300FB0CFC9C45F5
:108D000009D9FB1800F1FF3280F0D6809C4540F273
:108D1000D3803B44023840EA0140A3EB0C0300211E
:108D20001DB1F3400022C5E90032BDE8F0878B4257
:108D300005D90DB1C5E9000100210846F5E7B3FAF0
:108D400083F1002946D1734502D3824200F20581A6
:108D5000841A6EEB030201209046002DE5D0C5E990
:108D60000048E2E7002A00F09080B2FA82F6002E76
:108D700040F0A4808A1A030C4FEA174E80B2BCB2AE
:108D80000121B2FBFEFC0EFB1C2243EA024304FB62
:108D90000CF29A4207D9FB180CF1FF3802D29A4222
:108DA00000F2E080C4469B1AB3FBFEF20EFB1233C6
:108DB00040EA034302FB04F49C4207D9FB1802F18A
:108DC000FF3002D29C4200F2CA8002461B1B42EADC
:108DD0000C40A5E7C1F120068B4022FA06F71F439D
:108DE0000EFA01F420FA06F32EFA06FE4FEA1749AE
:108DF000234300FA01F81FFA87FCBEFBF9F01C0CB4
:108E000009FB10EE44EA0E4400FB0CFEA64502FAF4
:108E100001F209D93C1900F1FF3A80F09C80A64587
:108E200040F2998002383C44A4EB0E041FFA83FE02
:108E3000B4FBF9F309FB13444EEA044403FB0CFCB6
:108E4000A44508D93C1903F1FF3E80F08280A44577
:108E50007FD9023B3C4443EA0040A4EB0C04A0FB56
:108E600002EC64457346E14662D35FD05DB1B8EB76
:108E7000030264EB090404FA06F622FA01F31E4326
:108E8000CC40C5E9006400214FE7B1FBF2FC010CC6
:108E900041EA0E4180B240EA01423B4638463C4638
:108EA000B846BE462026B1FBF7F1A2EB080241EA24
:108EB0000C4166E7014618E710462CE7C6F1200290
:108EC0002EFA02F3B740B14020FA02F24FEA174EF1
:108ED0000A43B3FBFEF8BCB20EFB1833110C41EA97
:108EE000034108FB04F9B04089454FEA104380B2C2
:108EF0003ED9791808F1FF3C01D289451FD8A1EB72
:108F00000901B1FBFEF909FB04F80EFB191192B23D
:108F100042EA0142424529D2BA1809F1FF31C4D2CE
:108F20004245C2D2A9F102013A44BEE7F0459DD2C2
:108F3000BEEB02036CEB070C0138E14696E7A7EBAA
:108F400009094944A8F1020CB1FBFEF909FB04F838
:108F5000DBE773467FE7504666E70846FDE63B449D
:108F6000023A33E7ACF1020C3B441CE749469CE76C
:108F7000A1EB0901C446B1FBFEF909FB04F8C4E703
:108F8000704700BF80B485B000AFF860B960134689
:108F9000FB71FB68002B02D0BB68002B01D10123C1
:108FA0001AE0FB68BA681A60FB68FA791A71FB79F3
:108FB0000C4A9B0013441A68FB689A60FB680A4AD3
:108FC000DA60FB68094A5A61FB684FF480521A83E1
:108FD000FB6800221A61002318461437BD465DF86D
:108FE000047B7047000000207593184033335340D2
:108FF00080B586B000AF78607B68002B01D101237B
:1090000038E000237B6164233B8200237B820CE0F9
:10901000786800F096F802467B6913447B610A2069
:1090200002F05CF87B8A01337B827A8A3B8A9A421F
:10903000EED37B6907EE903AF8EE676A3B8A07EE5B
:10904000903AB8EEE77AC6EE877AC7ED037A7B6886
:1090500093ED057AD7ED037A67EE276A7B681B8B61
:1090600007EE903AB8EEE77AC6EE877A7B68C3EDF2
:10907000037A002318461837BD4680BD80B586B0F8
:1090800000AF78607B68002B02D14FF0000326E030
:10909000786800F056F878617B6907EE903AB8EE90
:1090A000677A7B68D3ED057A67EE276A7B681B8B4E
:1090B00007EE903AB8EEE77AC6EE877AC7ED047A03
:1090C0007B68D3ED037A97ED047A77EE676A7B6865
:1090D00093ED027AC6EE877AC7ED037AFB6807EE56
:1090E000903AB0EE670A1837BD4680BD80B483B0B1
:1090F00000AF78607B68002B0DD07B68094A1A604E
:109100007B68094A5A607B684FF000029A607B686E
:1091100000221A6100E000BF0C37BD465DF8047BF9
:10912000704700BF00C079C400C0794480B582B0E8
:1091300000AF78607868FFF7D9FF00BF0837BD46F9
:1091400080BD80B584B000AF78607B681B6818462E
:1091500002F02CF87B681B684FF0FF31184602F0D4
:109160000CF97B681B68184602F092F9F8607B687E
:109170001B68184602F0CEF8FB6818461037BD464B
:1091800080BD000080B483B000AF00237B6009E0A5
:109190000C4A7B689B0013444FF000021A607B6806
:1091A00001337B607B68132BF2DD074B00221A60D2
:1091B000064B00221A6000BF0C37BD465DF8047BE9
:1091C000704700BF0C0300205C03002060030020F8
:1091D00080B584B000AF3B4600221A605A609A60A6
:1091E000DA60214B214A1A601F4B00225A601E4B45
:1091F00000229A601C4B00221A611B4B01221A7636
:10920000194B002283F82020174B0022DA62164BFC
:10921000174A9A62144B0022DA60134B0122DA617A
:10922000114B012283F830200F4B01225A610E4866
:1092300001F078FF0346002B01D001F007F900236D
:109240003B6001237B600023BB603B461946064818
:1092500002F02CF90346002B01D001F0F7F800BF13
:109260001037BD4680BD00BF6403002000200140D0
:109270000100000F80B58AB000AF786007F11403D9
:1092800000221A605A609A60DA601A617B681B6873
:109290002F4A934257D100233B612E4B5B6C2D4AE2
:1092A00043F4807353642B4B5B6C03F480733B611A
:1092B0003B690023FB60274B1B6B264A43F00103ED
:1092C0001363244B1B6B03F00103FB60FB682F232C
:1092D0007B610323BB610023FB6107F11403194683
:1092E0001D4802F00DFF1D4B1D4A1A601B4B00224A
:1092F0005A601A4B00229A60184B0022DA60174B12
:109300004FF480621A61154B4FF400625A61134B9F
:109310004FF400529A61114B4FF48072DA610F4B97
:1093200000221A620D4B00225A620C4802F0FEFB2A
:109330000346002B01D001F089F87B68074A9A6345
:10934000064A7B68936300BF2837BD4680BD00BFD7
:10935000002001400038024000000240AC03002021
:109360001064024080B582B000AF786039607B68DD
:10937000002B02D03B68002B01D101232CE07B683D
:109380003A681A607B6800221A767B68144A1A656C
:109390007B684FF000025A657B6800229A6501F0F5
:1093A00091FE02467B68DA657B68002283F84820DC
:1093B0007B680022DA647B684FF00002DA617B6828
:1093C00020332822002118460BF0A6FA7B680433CC
:1093D0001846FFF7ABFE002318460837BD4680BD90
:1093E0000000A04080B582B000AF78607B68002BA1
:1093F00023D07B680433002B1FD012480BF070F988
:109400007B684FF000025A607B684FF000029A6060
:109410007B684FF00002DA607B6800225A6101F03D
:1094200051FE02467B681A61FFF7ACFE786800F0D7
:109430000DF805480BF054F900E000BF0837BD46B1
:1094400080BD00BFB8690108D069010880B584B04B
:1094500000AF78607B68002B11D00023FB6007E031
:109460009FED090A786800F0F7F8FB680133FB60AC
:10947000FB68092BF4DD05480BF032F900E000BF72
:109480001037BD4680BD00BF00000000E86901083C
:1094900080B58EB002AF786062480BF021F9624867
:1094A0000BF01EF94FF4FA6001F018FE4FF00003C4
:1094B000FB626423FB61F9695C480BF0A9F80023A7
:1094C000BB6235E07B681B681846FFF7D7FD87ED68
:1094D000020A97ED0B7AD7ED027A77EE277AC7ED7D
:1094E0000B7AB96A524B83FB0123DA10CB17D21ADD
:1094F00013469B0013449B00CA1A002A12D1D7EDD1
:10950000027A9FED4C7A67EE877A17EE900AFFF7A2
:1095100023F802460B46CDE90023FA69B96A4648AA
:109520000BF076F8322001F0D9FDBB6A0133BB6243
:10953000BA6AFB699A42C5DBFB6907EE903AB8EE5E
:10954000E77AD7ED0B6AC6EE877AC7ED067AD7EDD4
:10955000067A9FED387A67EE877A17EE900AFEF763
:10956000FBFF02460B4635480BF052F834480BF02F
:109570004FF84FF000037B6200233B621EE07B68E4
:109580001B681846FFF77AFD87ED040A97ED047A09
:10959000D7ED067A77EE677AC7ED037AD7ED037ACF
:1095A00067EEA77A97ED097A77EE277AC7ED097A01
:1095B000322001F093FD3B6A01333B623B6A132B7F
:1095C000DDDDD7ED097AF3EE046A87EEA67AB0EE18
:1095D000470A0DF0C3F987ED050AD7ED057A9FED2F
:1095E000157A67EE877A17EE900AFEF7B5FF024606
:1095F0000B4614480BF00CF8D7ED057A9FED127A64
:10960000F4EEC77AF1EE10FA02DD10480BF068F8BC
:109610000F480BF065F80F480BF062F800BF3037C9
:10962000BD4680BD186D01083C6D01085C6D0108E8
:109630006766666600007A44786D0108A06D0108CF
:10964000C46D0108D06D01080AD7A33CDC6D010888
:10965000106E0108246E010880B485B000AF7860F8
:1096600087ED000A7B68002B02D1D7ED007A3AE043
:109670007B6893F848307A6808339B0013443A6853
:109680001A607B6893F848305A1C1A4B83FB02130C
:109690009910D317C91A0B469B000B445B00D11AD3
:1096A000CAB27B6883F848204FF00003FB600023B8
:1096B000BB600FE07A68BB6808339B001344D3EDAE
:1096C000007A97ED037A77EE277AC7ED037ABB68C5
:1096D0000133BB60BB68092BECDD97ED037AF2EE3A
:1096E000046AC7EE267AB0EE670A1437BD465DF805
:1096F000047B704767666666B0B594B002AF786069
:109700007B68002B00F0D5811A480AF0E9FF00F0D1
:10971000E5FAF1EE040A9FED180A002000F06EFC55
:10972000F2EE040AB6EE000A012000F067FC002306
:109730007B64B6E17B681B681846FFF79FFC87EDEA
:109740000F0AD7ED0F7AF5EEC07AF1EE10FA03D5D5
:109750000023A7F8423023E0D7ED0F7AB1EE047A68
:10976000F4EEC77AF1EE10FA0ADD40F6FF73A7F8BF
:10977000423015E09C6E0108CDCCCC3D00F07F4519
:10978000D7ED0F7A1FED037A27EE877AF1EE046AA0
:10979000C7EE267AFCEEE77A17EE903AA7F8423049
:1097A000B7F842301946002000F0FCFBB7F8423011
:1097B0001946012000F0F6FBC04B1B889BB207EE58
:1097C000903AF8EE677AB1EE047A27EE877ADFED09
:1097D000BC6AC7EE267AC7ED0E7ABA4B1B889BB2DD
:1097E00007EE903AF8EE677AB1EE047A27EE877AC0
:1097F000DFEDB36AC7EE267AC7ED0D7AB14B5B8811
:109800009BB207EE903AF8EE677AB1EE047A27EE53
:10981000877ADFEDAB6AC7EE267AC7ED0C7A4FF098
:109820000003FB62D7ED0F7A9FEDA77AF4EEC77ABB
:10983000F1EE10FA2EDD97ED0D7AD7ED0F7A77EE77
:10984000677AF0EEE77A17EE900AFEF785FE044697
:109850000D46F86BFEF780FE02460B462046294671
:10986000FEF7FCFF02460B464FF000009749FEF75B
:1098700013FD02460B46104619464FF00002944B6A
:10988000FEF7C2FE02460B4610461946FFF794F952
:109890000346FB62796C8F4B83FB01239A10CB1735
:1098A000D21A13469B0013445B00CA1A002A40F0E8
:1098B000F2807B6C002B00F0EE80796C86480AF019
:1098C000A7FED7ED0F7A9FED857A67EE877A17EEC0
:1098D000900AFEF741FE02460B4681480AF098FEC8
:1098E000D7ED0E7A9FED7D7A67EE877A17EE900AB4
:1098F000FEF732FE02460B467A480AF089FED7EDA3
:109900000D7A9FED767A67EE877A17EE900AFEF76A
:1099100023FE02460B4674480AF07AFED7ED0C7A15
:109920009FED6E7A67EE877A17EE900AFEF714FEC7
:1099300002460B466D480AF06BFED7ED0D7AF0EE4D
:10994000E77A17EE900AFEF707FE04460D46D7EDBC
:109950000F7AF0EEE77A17EE900AFEF7FDFD024669
:109960000B4620462946FEF779FF02460B464FF08C
:1099700000005649FEF790FC02460B461046194679
:109980004FF00002524BFEF73FFE02460B4658488E
:109990000AF03EFE57480AF0A3FE002000F000FE49
:1099A0000021002000F048FFD7ED0F7A9FED4B7AA1
:1099B00067EE877A17EE900AFEF7CEFD02460B4659
:1099C00007F10C0046490AF093FE4B4B07F10C00DF
:1099D000012200920ECB00F009FFD7ED0E7A9FED29
:1099E0003F7A67EE877A17EE900AFEF7B5FD0246DA
:1099F0000B4607F10C003B490AF07AFE08210020D3
:109A000000F01AFFD7ED0F7A9FED347A67EE877A70
:109A100017EE900AFEF7A0FD02460B4607F10C0078
:109A20002F490AF065FE344B07F10C000122009229
:109A30000ECB00F0DBFED7ED0D7A9FED287A67EEB6
:109A4000877A17EE900AFEF787FD02460B4607F16C
:109A50000C0025490AF04CFE1021002000F0ECFE1D
:109A6000D7ED0F7A9FED1D7A67EE877A17EE900A91
:109A7000FEF772FD02460B4607F10C0018490AF08A
:109A800037FE1D4B07F10C00012200920ECB00F0B7
:109A9000ADFE00F09DFD642001F020FB7B6C0133E6
:109AA0007B647B6C632B7FF745AE14480AF018FE8D
:109AB00000E000BF4837BD46B0BD00BF0C04002029
:109AC00000F07F45180400206F12833A0000F03F39
:109AD0000000594067666666BC6E010800007A4463
:109AE000C86E0108E06E0108F86E0108206F0108D9
:109AF000486F0108646F0108FC770108686F01086E
:109B000080B582B000AF00237B600C4B1B6B0B4A0F
:109B100043F480031363094B1B6B03F480037B60E6
:109B20007B6800220021382001F0C9FF382001F0B5
:109B3000E2FF00BF0837BD4680BD00BF00380240CD
:109B400080B58CB000AF07F11C0300221A605A6088
:109B50009A60DA601A610023BB615B4B1B6B5A4A47
:109B600043F010031363584B1B6B03F01003BB61EE
:109B7000BB6900237B61544B1B6B534A43F00403C6
:109B80001363514B1B6B03F004037B617B69002360
:109B90003B614D4B1B6B4C4A43F0800313634A4BB4
:109BA0001B6B03F080033B613B690023FB60464B6A
:109BB0001B6B454A43F001031363434B1B6B03F0DC
:109BC0000103FB60FB680023BB603F4B1B6B3E4AFD
:109BD00043F0020313633C4B1B6B03F00203BB60B7
:109BE000BB6800237B60384B1B6B374A43F008038C
:109BF0001363354B1B6B03F008037B607B6800220B
:109C00002021324802F000FC0423FB6100233B6268
:109C100000237B6207F11C0319462D4802F070FAFD
:109C20004FF40053FB6100233B6200237B6207F18A
:109C30001C031946274802F063FA1023FB614FF416
:109C400088133B6200237B6207F11C0319462248FC
:109C500002F056FA4FF42073FB6100233B620023AD
:109C60007B6207F11C0319461B4802F049FA4FF4C6
:109C70008043FB6100233B6201237B6207F11C03ED
:109C80001946124802F03CFA2023FB6101233B6293
:109C900000237B620023BB6207F11C0319460B48BB
:109CA00002F02EFA4FF44073FB6100233B62002365
:109CB0007B6207F11C031946044802F021FA00BF39
:109CC0003037BD4680BD00BF00380240000402406E
:109CD00000100240000802400000024080B584B03D
:109CE00000AF0023FB601BE01E4AFB681344002208
:109CF0001A700023BB600DE01B49FA6813469B00F5
:109D000013445B00BA681344002221F81320BB6897
:109D10000133BB60BB68092BEEDDFB680133FB60E0
:109D2000FB68052BE0DD00237B6012E07A681346B8
:109D30005B001344DB000D4A1344B3EE091AF7EE3F
:109D4000000A9FED0B0A184600F070F87B6801339B
:109D50007B607B68052BE9DD00BF00BF1037BD4687
:109D600080BD00BF9C04002024040020A404002027
:109D70000000004580B485B000AF03460A46FB8072
:109D800013467B717B79052B01D9FB883FE07A79FB
:109D90007B792249CB5C1846214913469B0013442A
:109DA0005B000344FA8821F813207B791B4AD35CBB
:109DB0005A1C1C4B83FB02139910D317C91A0B466C
:109DC0009B000B445B00D11A7B79C9B2134AD15472
:109DD0000023FB600023BB6010E07A791049134632
:109DE0009B0013445B00BA68134431F813301A46E1
:109DF000FB681344FB60BB680133BB60BB68092B85
:109E0000EBDDFB68084AA2FB0323DB089BB2184684
:109E10001437BD465DF8047B704700BF9C040020EA
:109E20002404002067666666CDCCCCCC80B485B0B7
:109E300000AFF86087ED020AC7ED010A87ED001A4E
:109E4000FB68BA681A60FB684FF07E525A60FB6884
:109E50007A689A60FB683A68DA60FB684FF0000243
:109E60001A61FB6801221A7500BF1437BD465DF800
:109E7000047B704780B485B000AF786087ED000A3E
:109E80007B681B7D002B01D13B683BE07B6893ED39
:109E9000017A7B68D3ED027A77EE277AC7ED037AF1
:109EA0007B6893ED037AD7ED037A37EE277AD7ED07
:109EB000036AC6EE877A7B68C3ED047A7B6893ED0C
:109EC000007A7B68D3ED046A7B68D3ED007A97ED66
:109ED000006A76EE677A66EEA77A77EE277A7B6875
:109EE000C3ED007A7B68D3ED047AB7EE007A37EEE3
:109EF000677AD7ED037A67EE277A7B68C3ED017A3C
:109F00007B681B6807EE903AB0EE670A1437BD46CF
:109F10005DF8047B7047000080B584B000AF034655
:109F20000A46FB8013467B717B79052B01D9FB88A0
:109F30002EE07A7913465B001344DB00164A134483
:109F4000FA8807EE902AF8EE677AB0EE670A1846AC
:109F5000FFF790FF87ED030AD7ED037AF5EEC07A9D
:109F6000F1EE10FA02D54FF00003FB60D7ED037A53
:109F70009FED0A7AF4EEC77AF1EE10FA01DD084B94
:109F8000FB60D7ED037AFCEEE77A17EE903A9BB2CE
:109F900018461037BD4680BDA404002000F07F4560
:109FA00000F07F4590B583B000AF03460A46FB71D1
:109FB0001346BB80FB79052B18D8FC79FA79BB884E
:109FC00011461846FFF7D6FE03461A46094B23F8FA
:109FD0001420FC79FA79BB8811461846FFF79CFFDC
:109FE00003461A46044B23F8142000E000BF0C3748
:109FF000BD4690BD0C0400201804002080B485B03C
:10A0000000AF034687ED020AC7ED010AFB73FB7B35
:10A01000052B14D8FA7B0D4913465B001344DB0073
:10A020000B440833BA681A60FA7B084913465B0090
:10A030001344DB000B440C337A681A6000E000BF65
:10A040001437BD465DF8047B704700BFA4040020B0
:10A0500080B500AF124B134A1A60114B124A5A6076
:10A060000F4B00229A600E4B0022DA600C4B4FF42B
:10A0700080421A610A4B00225A61094B00229A6100
:10A08000074B0022DA61064B00221A62044802F0F4
:10A09000D5F90346002B01D000F0D8F900BF80BDF0
:10A0A0003405002000540040A086010080B58AB02D
:10A0B00000AF786007F1140300221A605A609A60BA
:10A0C000DA601A617B681B68194A93422BD100231E
:10A0D0003B61184B1B6B174A43F002031363154B8C
:10A0E0001B6B03F002033B613B69C0237B611223BE
:10A0F000BB610023FB6103233B6204237B6207F106
:10A10000140319460C4801F0FBFF0023FB60094BC8
:10A110001B6C084A43F400131364064B1B6C03F4D6
:10A120000013FB60FB6800BF2837BD4680BD00BF41
:10A1300000540040003802400004024080B584B062
:10A1400000AFF860B9607A607B689AB20A23B96898
:10A15000034805F0E5FC7B6818461037BD4680BD16
:10A16000E808002080B590B002AF6E4B6E4A9A604E
:10A1700072B600BF00F040FF62B600BF00F0FCF80E
:10A18000FFF7DEFCFFF7BCFCFFF722F8FFF760FFEC
:10A1900000F0CEFC00F034FE00F06CFD09F0F2F8A7
:10A1A00000F058FE61480AF09BFA07F124030022F0
:10A1B0001A605A609A60DA601A6120237B62012378
:10A1C000BB620023FB6200233B6307F124031946B3
:10A1D000574801F095FF01222021554802F014F95B
:10A1E0004FF4FA7000F07AFF00222021504802F06C
:10A1F0000BF950480AF074FA4F480AF071FA00F06F
:10A2000065F9002000F0CCF90021002000F014FBDB
:10A210004A4B012200920ECB494800F0E7FA00F0C9
:10A22000D7F948480AF05CFA002247494748FEF748
:10A23000A9FE0346002B04D045480AF051FA00F06D
:10A2400005F90821002000F0F7FA3C4B01220092AA
:10A250000ECB404800F0CAFA00F0BAF93E480AF0C6
:10A260003FFA3A48FEF7C4FE0346002B04D03B48B1
:10A270000AF036FA00F0EAF81021002000F0DCFACB
:10A280002E4B012200920ECB354800F0AFFA00F0C1
:10A290009FF934480AF024FA2C493348FFF762F852
:10A2A0000346002B04D031480AF01AFA00F0CEF829
:10A2B0004FF4967000F012FF244BDB681846FEF74F
:10A2C0004BF902460B462A480AF0A2F91F4BDB68FD
:10A2D0001846FEF741F902460B46381D25490AF09B
:10A2E00007FA002000F05CF90021002000F0A4FA39
:10A2F000124B381D012200920ECB00F077FA00F0CD
:10A3000067F9642000F0EAFE1748FFF7C1F8164825
:10A31000FFF768F8642000F0E1FE1348FFF7ECF95E
:10A32000FBE700BF00ED00E0008000089870010826
:10A3300000000240B0700108C4700108FC770108F9
:10A34000D8700108E8700108640300208805002027
:10A35000F8700108107101082071010848710108A6
:10A36000647101087C710108A40500209471010842
:10A37000B4710108CC71010880B594B000AF07F149
:10A3800020033022002118460AF0C6FA07F10C0318
:10A3900000221A605A609A60DA601A6104F0CEFBFB
:10A3A0000023BB60274B1B6C264A43F08053136489
:10A3B000244B1B6C03F08053BB60BB6800237B60A5
:10A3C000214B1B68204A43F4404313601E4B1B681B
:10A3D00003F440437B607B6801233B624FF480338E
:10A3E0007B620223BB634FF48003FB6304233B6463
:10A3F00048237B640223BB640323FB6407F120032F
:10A40000184603F003FF0346002B01D000F01EF8AE
:10A410000F23FB6002233B6100237B614FF48053D9
:10A42000BB610023FB6107F10C030221184604F015
:10A4300065F90346002B01D000F008F800BF503743
:10A44000BD4680BD003802400070004080B400AFBF
:10A4500072B600BF00BFFDE780B400AF00BFBD46CD
:10A460005DF8047B7047000080B586B004AF0346FA
:10A47000FB714FF0FF33029301230193FB1D009307
:10A48000012300227821034802F01CF900BF08379D
:10A49000BD4680BD3405002080B586B004AF78602D
:10A4A00039603B689BB24FF0FF32029201937B68A8
:10A4B0000093012340227821034802F003F900BFF2
:10A4C0000837BD4680BD00BF3405002080B500AF11
:10A4D000FFF7C2FF642000F001FE002000F0D8F971
:10A4E0002020FFF7C1FF0020FFF7BEFFB020FFF7DD
:10A4F000BBFFC820FFF7B8FF0020FFF7B5FF102013
:10A50000FFF7B2FF4020FFF7AFFFFF2000F0ACF9EC
:10A51000A120FFF7A9FFA620FFF7A6FFA820FFF7BD
:10A52000A3FF1F20FFF7A0FFA420FFF79DFFD3206C
:10A53000FFF79AFF0020FFF797FFD520FFF794FF62
:10A54000F020FFF791FFD920FFF78EFF2220FFF7C1
:10A550008BFFDA20FFF788FF0220FFF785FFDB2063
:10A56000FFF782FF2020FFF77FFF8D20FFF77CFFA2
:10A570001420FFF779FF012000F08AF9002000F095
:10A580000FF800F025F8054B00221A80034B00223B
:10A590005A80024B01221A7100BF80BD04080020BE
:10A5A00080B582B000AF0346FB71FB79002B01D16F
:10A5B000002300E0FF234FF40072194603480AF01D
:10A5C000ABF900BF0837BD4680BD00BF04060020C0
:10A5D00080B582B000AF0023FB7116E0FB79503BE1
:10A5E000DBB21846FFF740FF0020FFF73DFF1020C9
:10A5F000FFF73AFFFB79DB01084A13448021184634
:10A60000FFF74AFFFB790133FB71FB79032BE5D997
:10A6100000BF00BF0837BD4680BD00BF0406002054
:10A6200080B483B000AF0346FB710B46BB71134689
:10A630007B7197F90730002B3DDBBB791F2B3AD894
:10A640007B79012B1AD1FA79BB79DB08D8B20346A2
:10A65000DB0113441B4AD35C5AB2BB7903F00703F6
:10A66000012101FA03F35BB2134359B2FA790346AD
:10A67000DB011344C9B2134AD1541DE0FA79BB7906
:10A68000DB08D8B20346DB0113440E4AD35C5AB24E
:10A69000BB7903F00703012101FA03F35BB2DB434B
:10A6A0005BB2134059B2FA790346DB011344C9B2D5
:10A6B000044AD15400E000BF0C37BD465DF8047B6E
:10A6C000704700BF0406002090B589B000AF044673
:10A6D000384680E80E002346FB73FB7B1F2B02D914
:10A6E000FB7B7E2B01D9002379E0BB68002B05D0D2
:10A6F000BA68FB7B203B13441B7800E03B78FB757A
:10A70000394B1B881A46FB7D1344802B06DC364BE5
:10A710005B881A467B781344202B01DD00235EE022
:10A720000023FB614DE07A68FB7B203B797801FBDD
:10A7300003F31946FB690B445B0013441B883B6120
:10A740000023BB6136E03A69BB6902FA03F303F404
:10A750000043002B13D0244B1B88DAB2BB69DBB259
:10A760001344D8B2204B5B88DAB2FB69DBB21344E6
:10A77000DBB297F830201946FFF752FF17E01A4B6B
:10A780001B88DAB2BB69DBB21344D8B2164B5B88C4
:10A79000DAB2FB69DBB21344D9B297F83030002B40
:10A7A0000CBF01230023DBB21A46FFF739FFBB6958
:10A7B0000133BB61FB7DBA699A42C4D3FB690133A3
:10A7C000FB617B781A46FB699342ACD3064B1A882F
:10A7D000FB7D9BB213449AB2034B1A80FB7B184655
:10A7E0002437BD4690BD00BF0408002080B586B068
:10A7F00002AFF860384680E80E0013E0FB68187876
:10A800003B7E00933B460ECBFFF75EFF03461A46A6
:10A81000FB681B789A4202D0FB681B7808E0FB6853
:10A820000133FB60FB681B78002BE7D1FB681B78CA
:10A8300018461037BD4680BD80B483B000AF0346D4
:10A840000A46FB711346BB71FB799AB2054B1A801D
:10A85000BB799AB2034B5A8000BF0C37BD465DF8F6
:10A86000047B70470408002080B584B000AF034625
:10A87000FB718123FB73FB7B1846FFF7F5FDFB792A
:10A880001846FFF7F1FD00BF1037BD4680BD000040
:10A8900080B584B000AF0346FB71FB79002B05D077
:10A8A000AF23FB73084B01225A7104E0AE23FB7304
:10A8B000054B00225A71FB7B1846FFF7D5FD00BF00
:10A8C0001037BD4680BD00BF0408002080B582B0AF
:10A8D00000AF00237B60104B5B6C0F4A43F4804356
:10A8E00053640D4B5B6C03F480437B607B680023F7
:10A8F0003B60094B1B6C084A43F080531364064BC2
:10A900001B6C03F080533B603B68072001F0CCF8E0
:10A9100000BF0837BD4680BD0038024080B400AF9C
:10A9200000BFFDE780B400AF00BFFDE780B400AF1B
:10A9300000BFFDE780B400AF00BFFDE780B400AF0B
:10A9400000BFFDE780B400AF00BFBD465DF8047BEB
:10A95000704780B400AF00BFBD465DF8047B704710
:10A9600080B400AF00BFBD465DF8047B704780B582
:10A9700000AF00F093FB00BF80BD000080B500AFCA
:10A98000024804F051FA00BF80BD00BF5808002003
:10A9900080B500AF024801F077F900BF80BD00BF6D
:10A9A000AC03002080B500AF024802F038FB00BFC6
:10A9B00080BD00BF140E002080B400AF01231846F4
:10A9C000BD465DF8047B704780B582B000AF78600B
:10A9D000396009F0F3FF034616221A604FF0FF3387
:10A9E00018460837BD4680BD80B582B000AF78609C
:10A9F0004FF0FF317868FFF7E7FF00BFFDE780B554
:10AA000086B000AFF860B9607A6000237B610AE02D
:10AA1000AFF300800146BB685A1CBA60CAB21A7014
:10AA20007B6901337B617A697B689A42F0DB7B68E2
:10AA300018461837BD4680BD80B483B000AF78603B
:10AA40004FF0FF3318460C37BD465DF8047B704766
:10AA500080B483B000AF786039603B684FF4005237
:10AA60005A60002318460C37BD465DF8047B7047DA
:10AA700080B483B000AF7860012318460C37BD4620
:10AA80005DF8047B704780B485B000AFF860B960B2
:10AA90007A60002318461437BD465DF8047B704782
:10AAA00080B586B000AF7860144A154BD31A7B612D
:10AAB0007B693B61134B1B68002B02D1114B124A7F
:10AAC0001A60104B1A687B6813443A699A4207D29D
:10AAD00009F074FF03460C221A604FF0FF3309E0BF
:10AAE000084B1B68FB60074B1A687B681344054AD8
:10AAF0001360FB6818461837BD4680BD0000022071
:10AB0000000400000C0800205814002080B400AF9E
:10AB1000064BD3F88830054A43F47003C2F88830F6
:10AB200000BFBD465DF8047B704700BF00ED00E04C
:10AB300080B596B000AF07F1480300221A605A6052
:10AB40009A60DA6007F1400300221A605A6007F148
:10AB5000240300221A605A609A60DA601A615A610E
:10AB60009A613B1D20220021184609F0D5FE3F4B7B
:10AB70003F4A1A603D4B47225A603C4B00229A6084
:10AB80003A4B40F2E732DA60384B00221A61374B19
:10AB900000225A61354B00229A61344804F09CF837
:10ABA0000346002B01D0FFF751FC4FF48053BB64E8
:10ABB00007F1480319462D4804F0E8FA0346002B34
:10ABC00001D0FFF743FC294804F0D5F80346002BD9
:10ABD00001D0FFF73BFC00233B6400237B6407F1BB
:10ABE00040031946214804F077FE0346002B01D0AC
:10ABF000FFF72CFC60237B624FF4FA73BB620023E7
:10AC0000FB6200233B6300237B630023BB630023C1
:10AC1000FB6307F1240300221946144804F0F4F9F9
:10AC20000346002B01D0FFF711FC00237B600023BB
:10AC3000BB600023FB6000233B6100237B614FF47A
:10AC40000053BB6100233B623B1D1946074804F0DB
:10AC5000B1FE0346002B01D0FFF7F8FB034800F0DC
:10AC600095F800BF5837BD4680BD00BF10080020D2
:10AC70000000014080B586B000AF07F10803002254
:10AC80001A605A609A60DA603B4600221A605A6085
:10AC90001D4B1E4A1A601C4B47225A601A4B002259
:10ACA0009A60194B40F2E732DA60174B00221A61C2
:10ACB000154B00229A61144804F00EF80346002B4D
:10ACC00001D0FFF7C3FB4FF48053BB6007F10803CB
:10ACD00019460D4804F05AFA0346002B01D0FFF73D
:10ACE000B5FB00233B6000237B603B4619460648CA
:10ACF00004F0F2FD0346002B01D0FFF7A7FB00BFD5
:10AD00001837BD4680BD00BF58080020000800402D
:10AD100080B584B000AF78607B681B68184A9342A6
:10AD20000ED10023FB60174B5B6C164A43F0010306
:10AD30005364144B5B6C03F00103FB60FB681AE087
:10AD40007B681B68104A934215D10023BB600D4BF2
:10AD50001B6C0C4A43F0040313640A4B1B6C03F096
:10AD60000403BB60BB68002200211E2000F0A7FE88
:10AD70001E2000F0C0FE00BF1037BD4680BD00BFE2
:10AD800000000140003802400008004080B588B053
:10AD900000AF786007F10C0300221A605A609A60D5
:10ADA000DA601A617B681B68124A93421ED1002345
:10ADB000BB60114B1B6B104A43F0010313630E4B36
:10ADC0001B6B03F00103BB60BB684FF48073FB6037
:10ADD00002233B6100237B610023BB610123FB61F4
:10ADE00007F10C031946054801F08AF900BF203726
:10ADF000BD4680BD00000140003802400000024016
:10AE000080B500AF114B124A1A60104B4FF4E1327B
:10AE10005A600E4B00229A600C4B0022DA600B4BFA
:10AE200000221A61094B0C225A61084B4FF4407200
:10AE30009A61064B0022DA61044804F021FE0346C1
:10AE4000002B01D0FFF702FB00BF80BDA00800204F
:10AE50000044004080B500AF114B124A1A60104BFD
:10AE60004FF4E1325A600E4B00229A600C4B0022E4
:10AE7000DA600B4B00221A61094B0C225A61084B15
:10AE800000229A61064B0022DA61054804F0F8FDC1
:10AE90000346002B01D0FFF7D9FA00BF80BD00BFE9
:10AEA000E80800200014014080B58CB000AF786045
:10AEB00007F11C0300221A605A609A60DA601A6176
:10AEC0007B681B68324A93422CD10023BB61314B13
:10AED0001B6C304A43F4003313642E4B1B6C03F499
:10AEE0000033BB61BB6900237B612A4B1B6B294A82
:10AEF00043F008031363274B1B6B03F008037B61CC
:10AF00007B697823FB6102233B6200237B6203237E
:10AF1000BB620723FB6207F11C0319461E4801F0C0
:10AF2000EFF830E07B681B681C4A93422BD100236A
:10AF30003B61184B5B6C174A43F020035364154B7D
:10AF40005B6C03F020033B613B690023FB60114B0A
:10AF50001B6B104A43F0040313630E4B1B6B03F08F
:10AF60000403FB60FB68C023FB6102233B620023F8
:10AF70007B620323BB620823FB6207F11C031946B3
:10AF8000074801F0BDF800BF3037BD4680BD00BFA7
:10AF90000044004000380240000C02400014014010
:10AFA00000080240DFF834D0FFF7B0FD0C480D492F
:10AFB0000D4A002302E0D458C4500433C4188C4214
:10AFC000F9D30A4A0A4C002301E013600432A2427A
:10AFD000FBD309F0F9FCFFF7C5F870470000022029
:10AFE00000000020F0020020AC7B0108F0020020ED
:10AFF00058140020FEE7000080B500AF0E4B1B6820
:10B000000D4A43F4007313600B4B1B680A4A43F468
:10B0100080631360084B1B68074A43F48073136016
:10B02000032000F041FD002000F008F8FFF74EFC7F
:10B030000023184680BD00BF003C024080B582B0AE
:10B0400000AF7860124B1A68124B1B7819464FF408
:10B050007A73B3FBF1F3B2FBF3F3184600F059FD3A
:10B060000346002B01D001230EE07B680F2B0AD88A
:10B07000002279684FF0FF3000F021FD064A7B681E
:10B080001360002300E0012318460837BD4680BD49
:10B090000C000020140000201000002080B400AF3D
:10B0A000064B1B781A46064B1B681344044A136070
:10B0B00000BFBD465DF8047B704700BF1400002050
:10B0C0003009002080B400AF034B1B681846BD4612
:10B0D0005DF8047B704700BF3009002080B584B064
:10B0E00000AF7860FFF7EEFFB8607B68FB60FB683D
:10B0F000B3F1FF3F05D00A4B1B781A46FB68134497
:10B10000FB6000BFFFF7DEFF0246BB68D31AFA6898
:10B110009A42F7D800BF00BF1037BD4680BD00BFC0
:10B120001400002080B584B000AF78600023FB736A
:10B130007B68002B01D1012333E07B681B6C002B63
:10B1400009D17868FEF796F87B6800225A647B681C
:10B15000002283F83C207B681B6C03F01003002B5B
:10B1600018D17B681B6C23F4885323F0020343F04F
:10B1700002027B681A64786800F0CAFA7B680022D1
:10B180005A647B681B6C23F0030343F001027B6865
:10B190001A6401E00123FB737B68002283F83C20E2
:10B1A000FB7B18461037BD4680BD000080B485B0DB
:10B1B00000AF78600023BB607B6893F83C30012BC4
:10B1C00001D1022397E07B68012283F83C207B6851
:10B1D0001B689B6803F00103012B18D07B681B6878
:10B1E0009A687B681B6842F001029A60454B1B68B5
:10B1F000454AA2FB03239A0C13465B001344BB6031
:10B2000002E0BB68013BBB60BB68002BF9D17B68E7
:10B210001B689B6803F00103012B5FD17B681B6CEB
:10B2200023F4E06323F0010343F480727B681A6423
:10B230007B681B685B6803F48063002B07D07B6826
:10B240001B6C23F4405343F480527B681A647B6880
:10B250001B6C03F48053B3F5805F06D17B685B6C95
:10B2600023F006027B685A6402E07B6800225A647D
:10B270007B68002283F83C20244BFB607B681B68C2
:10B280006FF022021A60FB685B6803F01F03002B5B
:10B290000FD17B681B689B6803F04053002B29D1BA
:10B2A0007B681B689A687B681B6842F080429A60E2
:10B2B00020E07B681B68164A93421BD17B681B68A1
:10B2C0009B6803F04053002B14D17B681B689A687D
:10B2D0007B681B6842F080429A600BE07B681B6CC5
:10B2E00043F010027B681A647B685B6C43F00102D8
:10B2F0007B685A64002318461437BD465DF8047B0A
:10B30000704700BF0C00002083DE1B430023014078
:10B310000020014080B483B000AF78607B6893F870
:10B320003C30012B01D1022321E07B68012283F80C
:10B330003C207B681B689A687B681B6822F00102CE
:10B340009A607B681B689B6803F00103002B09D19E
:10B350007B681B6C23F4885323F0010343F0010244
:10B360007B681A647B68002283F83C20002318461F
:10B370000C37BD465DF8047B704780B584B000AFE4
:10B38000786039600023FB607B681B689B6803F46E
:10B390008063B3F5806F13D17B681B689B6803F4EF
:10B3A0008073B3F5807F0BD17B681B6C43F0200268
:10B3B0007B681A647B68002283F83C20012363E0E9
:10B3C000FFF780FEF86021E03B68B3F1FF3F1DD03E
:10B3D0003B68002B07D0FFF775FE0246FB68D31AC7
:10B3E0003A689A4212D27B681B681B6803F002031A
:10B3F000022B0BD07B681B6C43F004027B681A6441
:10B400007B68002283F83C2003233DE07B681B68B7
:10B410001B6803F00203022BD6D17B681B686FF018
:10B4200012021A607B681B6C43F400727B681A641A
:10B430007B681B689B6803F04053002B23D17B681B
:10B440001B7E002B1FD17B681B68DB6A03F4700333
:10B45000002B06D07B681B689B6803F48063002B7D
:10B4600011D17B681B6C23F480727B681A647B6843
:10B470001B6C03F48053002B05D17B681B6C43F0DD
:10B4800001027B681A64002318461037BD4680BD50
:10B4900080B483B000AF78607B681B68DB6C1846B3
:10B4A0000C37BD465DF8047B7047000080B485B062
:10B4B00000AF786039600023BB607B6893F83C3054
:10B4C000012B01D1022313E17B68012283F83C2088
:10B4D0003B681B68092B25D97B681B68D9683B68CA
:10B4E0001B689BB21A4613465B0013441E3B07229F
:10B4F00002FA03F3DA437B681B680A40DA607B6870
:10B500001B68D9683B689A683B681B689BB2184601
:10B5100003465B0003441E3B9A407B681B680A435A
:10B52000DA6022E07B681B6819693B681B689BB284
:10B530001A4613465B001344072202FA03F3DA4368
:10B540007B681B680A401A617B681B6819693B6845
:10B550009A683B681B689BB2184603465B0003442D
:10B560009A407B681B680A431A613B685B68062B3C
:10B5700024D87B681B68596B3B685A6813469B004C
:10B580001344053B1F2202FA03F3DA437B681B686E
:10B590000A405A637B681B68596B3B681B689BB207
:10B5A00018463B685A6813469B001344053B00FA53
:10B5B00003F27B681B680A435A634CE03B685B6894
:10B5C0000C2B24D87B681B68196B3B685A681346A0
:10B5D0009B001344233B1F2202FA03F3DA437B68E8
:10B5E0001B680A401A637B681B68196B3B681B6801
:10B5F0009BB218463B685A6813469B001344233B92
:10B6000000FA03F27B681B680A431A6323E07B6835
:10B610001B68D96A3B685A6813469B001344413B38
:10B620001F2202FA03F3DA437B681B680A40DA62DE
:10B630007B681B68D96A3B681B689BB218463B68ED
:10B640005A6813469B001344413B00FA03F27B689F
:10B650001B680A43DA62294BFB607B681B68284A37
:10B6600093420FD13B681B68122B0BD1FB685B68C0
:10B6700023F40002FB685A60FB685B6843F48002B5
:10B68000FB685A607B681B681D4A93422BD13B685C
:10B690001B681C4A934203D03B681B68112B22D1C4
:10B6A000FB685B6823F48002FB685A60FB685B6898
:10B6B00043F40002FB685A603B681B68114A9342DE
:10B6C00011D1114B1B68114AA2FB03239A0C13469C
:10B6D0009B0013445B00BB6002E0BB68013BBB60A6
:10B6E000BB68002BF9D17B68002283F83C20002343
:10B6F00018461437BD465DF8047B704700230140AF
:10B7000000200140120000100C00002083DE1B43CB
:10B7100080B485B000AF7860794BFB60FB685B68F4
:10B7200023F44032FB685A60FB685A687B685B68A8
:10B730001A43FB685A607B681B685A687B681B6801
:10B7400022F480725A607B681B6859687B681B69A9
:10B750001A027B681B680A435A607B681B685A6838
:10B760007B681B6822F040725A607B681B685968CE
:10B770007B689A687B681B680A435A607B681B6811
:10B780009A687B681B6822F400629A607B681B6879
:10B7900099687B68DA687B681B680A439A607B68F3
:10B7A0009B6A584A934222D07B681B689A687B68E0
:10B7B0001B6822F070629A607B681B6899687B68DE
:10B7C0009A6A7B681B680A439A607B681B689A6860
:10B7D0007B681B6822F040529A607B681B689968FE
:10B7E0007B68DA6A7B681B680A439A600FE07B68B3
:10B7F0001B689A687B681B6822F070629A607B689D
:10B800001B689A687B681B6822F040529A607B68CC
:10B810001B689A687B681B6822F002029A607B684A
:10B820001B6899687B681B7E5A007B681B680A430B
:10B830009A607B6893F82030002B1BD07B681B68D4
:10B840005A687B681B6842F400625A607B681B6818
:10B850005A687B681B6822F460425A607B681B68E8
:10B8600059687B685B6A013B5A037B681B680A4323
:10B870005A6007E07B681B685A687B681B6822F483
:10B8800000625A607B681B68DA6A7B681B6822F476
:10B890007002DA627B681B68D96A7B68DB69013BEE
:10B8A0001A057B681B680A43DA627B681B689A6822
:10B8B0007B681B6822F400729A607B681B68996839
:10B8C0007B6893F830305A027B681B680A439A60A1
:10B8D0007B681B689A687B681B6822F480629A60A8
:10B8E0007B681B6899687B685B699A027B681B6848
:10B8F0000A439A6000BF1437BD465DF8047B704769
:10B90000002301400100000F80B485B000AF7860D3
:10B910007B6803F00703FB600C4BDB68BB60BA6815
:10B920004FF6FF031340BB60FB681A02BB6813436A
:10B9300043F0BF6343F40033BB60044ABB68D36089
:10B9400000BF1437BD465DF8047B704700ED00E092
:10B9500080B400AF044BDB681B0A03F007031846F2
:10B96000BD465DF8047B704700ED00E080B483B015
:10B9700000AF0346FB7197F90730002B0BDBFB7917
:10B9800003F01F02074997F907305B09012000FA0D
:10B9900002F241F8232000BF0C37BD465DF8047B5E
:10B9A000704700BF00E100E080B483B000AF034601
:10B9B0003960FB7197F90730002B0ADB3B68DAB27C
:10B9C0000C4997F907301201D2B20B4483F80023D7
:10B9D0000AE03B68DAB20849FB7903F00F03043B45
:10B9E0001201D2B20B441A7600BF0C37BD465DF887
:10B9F000047B704700E100E000ED00E080B489B016
:10BA000000AFF860B9607A60FB6803F00703FB6180
:10BA1000FB69C3F10703042B28BF0423BB61FB6947
:10BA20000433062B02D9FB69033B00E000237B6152
:10BA30004FF0FF32BB6902FA03F3DA43BB681A40E6
:10BA40007B699A404FF0FF317B6901FA03F3D943D8
:10BA50007B680B40134318462437BD465DF8047BD2
:10BA60007047000080B582B000AF78607B68013B12
:10BA7000B3F1807F01D301230FE00A4A7B68013BC9
:10BA800053600F214FF0FF30FFF78EFF054B002270
:10BA90009A60044B07221A60002318460837BD46F7
:10BAA00080BD00BF10E000E080B582B000AF7860DC
:10BAB0007868FFF729FF00BF0837BD4680BD80B515
:10BAC00086B000AF0346B9607A60FB7300237B61E8
:10BAD000FFF73EFF78617A68B9687869FFF78EFFF3
:10BAE000024697F90F3011461846FFF75DFF00BF79
:10BAF0001837BD4680BD80B582B000AF0346FB71EC
:10BB000097F907301846FFF731FF00BF0837BD46E9
:10BB100080BD80B582B000AF78607868FFF7A2FF83
:10BB2000034618460837BD4680BD000080B586B084
:10BB300000AF786000237B61FFF7C4FA38617B684F
:10BB4000002B01D1012399E07B68022283F8352084
:10BB50007B68002283F834207B681B681A687B6846
:10BB60001B6822F001021A600FE0FFF7ABFA0246F1
:10BB70003B69D31A052B08D97B6820225A657B685C
:10BB8000032283F83520032378E07B681B681B6859
:10BB900003F00103002BE8D17B681B681B687B6105
:10BBA0007A69384B13407B617B685A687B689B6875
:10BBB0001A437B68DB681A437B681B691A437B68FE
:10BBC0005B691A437B689B691A437B68DB691A438C
:10BBD0007B681B6A13437A6913437B617B685B6AEA
:10BBE000042B07D17B68DA6A7B681B6B13437A6985
:10BBF00013437B617B681B687A691A607B681B68EA
:10BC00005B697B617B6923F007037B617B685B6A0F
:10BC10007A6913437B617B685B6A042B17D17B686D
:10BC20009B6A7A6913437B617B68DB6A002B0ED0C9
:10BC3000786800F0E9F90346002B08D07B684022C1
:10BC40005A657B68012283F83520012316E07B6862
:10BC50001B687A695A61786800F0A0F90346FB60B6
:10BC60007B68DB6D3F229A40FB689A607B6800220C
:10BC70005A657B68012283F835200023184618375F
:10BC8000BD4680BD3F8010F080B586B000AF7860C3
:10BC90000023BB608E4B1B688E4AA2FB03239B0ACA
:10BCA0007B617B689B6D3B613B691B68FB607B68CC
:10BCB000DB6D08229A40FB681340002B1AD07B688A
:10BCC0001B681B6803F00403002B13D07B681B6800
:10BCD0001A687B681B6822F004021A607B68DB6DBF
:10BCE00008229A403B699A607B685B6D43F00102D1
:10BCF0007B685A657B68DB6D01229A40FB681340C4
:10BD0000002B12D07B681B685B6903F08003002B5B
:10BD10000BD07B68DB6D01229A403B699A607B689F
:10BD20005B6D43F002027B685A657B68DB6D042221
:10BD30009A40FB681340002B12D07B681B681B687D
:10BD400003F00203002B0BD07B68DB6D04229A40CA
:10BD50003B699A607B685B6D43F004027B685A65BF
:10BD60007B68DB6D10229A40FB681340002B43D0A8
:10BD70007B681B681B6803F00803002B3CD07B68C2
:10BD8000DB6D10229A403B699A607B681B681B68D8
:10BD900003F48023002B18D07B681B681B6803F416
:10BDA0000023002B08D17B681B6C002B24D07B6800
:10BDB0001B6C786898471FE07B689B6C002B1BD03E
:10BDC0007B689B6C7868984716E07B681B681B68EB
:10BDD00003F48073002B07D17B681B681A687B68AB
:10BDE0001B6822F008021A607B681B6C002B03D0D2
:10BDF0007B681B6C786898477B68DB6D20229A40D3
:10BE0000FB681340002B00F08F807B681B681B6869
:10BE100003F01003002B00F087807B68DB6D20228D
:10BE20009A403B699A607B6893F83530DBB2052B0A
:10BE300036D17B681B681A687B681B6822F0160283
:10BE40001A607B681B685A697B681B6822F0800255
:10BE50005A617B681B6C002B03D17B689B6C002BA9
:10BE600007D07B681B681A687B681B6822F0080291
:10BE70001A607B68DB6D3F229A403B699A607B6861
:10BE8000012283F835207B68002283F834207B6808
:10BE90001B6D002B7ED07B681B6D7868984779E01E
:10BEA0007B681B681B6803F48023002B1DD07B6814
:10BEB0001B681B6803F40023002B0DD17B685B6CAF
:10BEC000002B31D07B685B6C786898472CE000BF12
:10BED0000C000020B5814E1B7B68DB6B002B23D050
:10BEE0007B68DB6B786898471EE07B681B681B6883
:10BEF00003F48073002B0FD17B681B681A687B6882
:10BF00001B6822F010021A607B68012283F835203A
:10BF10007B68002283F834207B68DB6B002B03D026
:10BF20007B68DB6B786898477B685B6D002B32D051
:10BF30007B685B6D03F00103002B22D07B68052238
:10BF400083F835207B681B681A687B681B6822F0C1
:10BF500001021A60BB680133BB607A699A4207D359
:10BF60007B681B681B6803F00103002BF2D100E023
:10BF700000BF7B68012283F835207B68002283F8AC
:10BF800034207B68DB6C002B05D07B68DB6C786829
:10BF9000984700E000BF1837BD4680BD80B485B02B
:10BFA00000AF78607B681B68DBB2103B144AA2FBD1
:10BFB00003231B09FB60134AFB6813441B781A46D2
:10BFC0007B68DA65FB68032B09D97B681B6823F45F
:10BFD0007F7323F003031A1D7B689A6507E07B6873
:10BFE0001B6823F47F7323F003037A6893657B68EF
:10BFF0009B6D18461437BD465DF8047B704700BF43
:10C00000ABAAAAAA2078010880B485B000AF7860F6
:10C010000023FB737B689B6ABB607B689B69002B7A
:10C020001FD1BB68032B56D801A252F823F000BFE2
:10C0300041C0000853C0000841C00008D7C0000834
:10C040007B68DB6A03F08073002B46D00123FB730F
:10C0500043E07B68DB6AB3F1C07F40D10123FB730F
:10C060003DE07B689B69B3F5005F21D1BB68032B82
:10C0700037D801A252F823F089C000088FC0000809
:10C0800089C00008A1C000080123FB7330E07B6871
:10C09000DB6A03F08073002B25D00123FB7322E0C1
:10C0A0007B68DB6AB3F1C07F1FD10123FB731CE007
:10C0B000BB68022B03D9BB68032B03D018E0012314
:10C0C000FB7315E07B68DB6A03F08073002B0ED0F6
:10C0D0000123FB730BE000BF0AE000BF08E000BFD4
:10C0E00006E000BF04E000BF02E000BF00E000BFC8
:10C0F000FB7B18461437BD465DF8047B704700BFD4
:10C1000080B489B000AF7860396000237B61002380
:10C110003B610023BB610023FB6159E10122FB6904
:10C1200002FA03F37B613B681B687A6913403B6149
:10C130003A697B699A4240F048813B685B6803F04A
:10C140000303012B05D03B685B6803F00303022B5C
:10C1500030D17B689B68BB61FB695B00032202FAFC
:10C1600003F3DB43BA691340BB613B68DA68FB69E0
:10C170005B0002FA03F3BA691343BB617B68BA69D7
:10C180009A607B685B68BB610122FB6902FA03F37A
:10C19000DB43BA691340BB613B685B681B0903F072
:10C1A0000102FB6902FA03F3BA691343BB617B68BE
:10C1B000BA695A603B685B6803F00303032B17D02E
:10C1C0007B68DB68BB61FB695B00032202FA03F357
:10C1D000DB43BA691340BB613B689A68FB695B004B
:10C1E00002FA03F3BA691343BB617B68BA69DA6088
:10C1F0003B685B6803F00303022B23D1FB69DA0879
:10C200007B68083253F82230BB61FB6903F00703F7
:10C210009B000F2202FA03F3DB43BA691340BB61B0
:10C220003B681A69FB6903F007039B0002FA03F3FA
:10C23000BA691343BB61FB69DA087B680832B969E4
:10C2400043F822107B681B68BB61FB695B0003221B
:10C2500002FA03F3DB43BA691340BB613B685B68D6
:10C2600003F00302FB695B0002FA03F3BA691343AC
:10C27000BB617B68BA691A603B685B6803F4403352
:10C28000002B00F0A2800023FB60574B5B6C564AEA
:10C2900043F480435364544B5B6C03F48043FB6072
:10C2A000FB68524AFB699B08023352F82330BB619A
:10C2B000FB6903F003039B000F2202FA03F3DB4345
:10C2C000BA691340BB617B68494A934219D07B68C5
:10C2D000484A934213D07B68474A93420DD07B680B
:10C2E000464A934207D07B68454A934201D10423D2
:10C2F00008E0072306E0032304E0022302E0012311
:10C3000000E00023FA6902F0030292009340BA6948
:10C310001343BB613549FB699B080233BA6941F895
:10C320002320384B9B68BB613B69DB43BA691340F0
:10C33000BB613B685B6803F48013002B03D0BA69D0
:10C340003B691343BB612F4ABB6993602D4BDB688C
:10C35000BB613B69DB43BA691340BB613B685B6807
:10C3600003F40013002B03D0BA693B691343BB618C
:10C37000244ABB69D360234B5B68BB613B69DB43E9
:10C38000BA691340BB613B685B6803F40033002B60
:10C3900003D0BA693B691343BB611A4ABB69536056
:10C3A000184B1B68BB613B69DB43BA691340BB6137
:10C3B0003B685B6803F48033002B03D0BA693B69A8
:10C3C0001343BB610F4ABB691360FB690133FB6117
:10C3D000FB690F2B7FF6A2AE00BF00BF2437BD461E
:10C3E0005DF8047B704700BF003802400038014010
:10C3F000000002400004024000080240000C02401D
:10C4000000100240003C014080B483B000AF78606F
:10C410000B467B8013467B707B78002B03D07A8899
:10C420007B689A6103E07B881A047B689A6100BF8D
:10C430000C37BD465DF8047B7047000080B584B0C2
:10C4400000AF78607B68002B01D101232BE17B6872
:10C4500093F83D30DBB2002B06D17B68002283F8D5
:10C460003C207868FDF722FE7B68242283F83D207B
:10C470007B681B681A687B681B6822F001021A60DF
:10C480007B681B681A687B681B6842F400421A606C
:10C490007B681B681A687B681B6822F400421A607C
:10C4A00002F024FBF8607B685B68814A934207D8FE
:10C4B000FB68804A934294BF01230023DBB206E06D
:10C4C000FB687D4A934294BF01230023DBB2002B1B
:10C4D00001D00123E7E0FB68784AA2FB03239B0C11
:10C4E000BB607B681B685B6823F03F017B681B684F
:10C4F000BA680A435A607B681B681B6A23F03F01D5
:10C500007B685B686A4A934202D8BB68013309E0E2
:10C51000BB684FF4967202FB03F3694AA2FB032344
:10C520009B0901337A6812680B4313627B681B68AE
:10C53000DB6923F44F4222F0FF027B685B685C49B1
:10C540008B4219D8FB68591E7B685B685B00B1FBA6
:10C55000F3F3591C40F6FC730B40002B0AD0FB6828
:10C56000591E7B685B685B00B1FBF3F30133C3F3D7
:10C570000B0351E004234FE07B689B68002B11D133
:10C58000FB68581E7B6859680B465B000B44B0FB88
:10C59000F3F30133C3F30B03002B0CBF0123002380
:10C5A000DBB212E0FB68581E7B6859680B469B00A3
:10C5B0000B4499000B44B0FBF3F30133C3F30B03BB
:10C5C000002B0CBF01230023DBB2002B01D0012381
:10C5D00022E07B689B68002B0ED1FB68581E7B68AD
:10C5E00059680B465B000B44B0FBF3F30133C3F314
:10C5F0000B0343F400430FE0FB68581E7B68596847
:10C600000B469B000B4499000B44B0FBF3F3013342
:10C61000C3F30B0343F44043796809681343CB61C8
:10C620007B681B681B6823F0C0017B68DA697B6844
:10C630001B6A1A437B681B680A431A607B681B6885
:10C640009B6823F4034323F0FF037A6811697A6837
:10C65000D26811437A6812680B4393607B681B6849
:10C66000DB6823F0FF017B685A697B689B691A438A
:10C670007B681B680A43DA607B681B681A687B6802
:10C680001B6842F001021A607B6800221A647B6812
:10C69000202283F83D207B6800221A637B680022F9
:10C6A00083F83E20002318461037BD4680BD00BFEA
:10C6B000A08601007F841E00FF083D0083DE1B432F
:10C6C000D34D621080B588B002AFF86008461146BD
:10C6D0001A4603467B810B463B811346FB80FEF7DF
:10C6E000F1FC7861FB6893F83D30DBB2202B40F021
:10C6F000D9807B690093192301226D49F86800F005
:10C7000071F90346002B01D00223CCE0FB6893F8BB
:10C710003C30012B01D10223C5E0FB68012283F8E4
:10C720003C20FB681B681B6803F00103012B07D04A
:10C73000FB681B681A68FB681B6842F001021A60FC
:10C74000FB681B681A68FB681B6822F400621A60A9
:10C75000FB68212283F83D20FB68402283F83E20BD
:10C76000FB6800221A64FB683A6A5A62FB68BA8C5A
:10C770005A85FB685B8D9AB2FB681A85FB684D4A47
:10C78000DA62F8883A8979897B690193BB6A0093F8
:10C790000346F86800F090F80346002B52D00123BE
:10C7A00081E07A69B96AF86800F036FA0346002B2E
:10C7B0000DD0FB681B6C042B07D1FB681B681A6843
:10C7C000FB681B6842F400721A6001236BE0FB688F
:10C7D0005B6A1A78FB681B681A61FB685B6A5A1C03
:10C7E000FB685A62FB681B8D013B9AB2FB681A8595
:10C7F000FB685B8D9BB2013B9AB2FB685A85FB6874
:10C800001B685B6903F00403042B1BD1FB681B8DC1
:10C81000002B17D0FB685B6A1A78FB681B681A61EB
:10C82000FB685B6A5A1CFB685A62FB681B8D013B04
:10C830009AB2FB681A85FB685B8D9BB2013B9AB28A
:10C84000FB685A85FB681B8D002BAAD17A69B96AEF
:10C85000F86800F029FA0346002B0DD0FB681B6C2A
:10C86000042B07D1FB681B681A68FB681B6842F43D
:10C8700000721A60012316E0FB681B681A68FB68E7
:10C880001B6842F400721A60FB68202283F83D2086
:10C89000FB68002283F83E20FB68002283F83C20DE
:10C8A000002300E0022318461837BD4680BD00BFB4
:10C8B000020010000000FFFF80B588B002AFF860F2
:10C8C000084611461A4603467B810B463B811346B8
:10C8D000FB80FB681B681A68FB681B6842F4807267
:10C8E0001A607B6A00933B6A00224FF00111F868DE
:10C8F00000F078F80346002B0DD0FB681B681B681E
:10C9000003F48073B3F5807F03D1FB684FF40072AA
:10C910001A6403235FE07B89DBB21A46FB681B685D
:10C9200002F0FE021A617B6A3A6A2D49F86800F04B
:10C93000D3F80346002B01D001234CE000237B6198
:10C94000FB681B685B697B61FB681B689B697B619B
:10C950007B697A6A396AF86800F05EF90346002B51
:10C960000DD0FB681B6C042B07D1FB681B681A6891
:10C97000FB681B6842F400721A6001232BE0FB88FD
:10C98000012B05D13B89DAB2FB681B681A6121E0F3
:10C990003B891B0A9BB2DAB2FB681B681A617A6A90
:10C9A000396AF86800F038F90346002B0DD0FB68AF
:10C9B0001B6C042B07D1FB681B681A68FB681B689B
:10C9C00042F400721A60012305E03B89DAB2FB6889
:10C9D0001B681A61002318461837BD4680BD00BF8A
:10C9E0000200010080B584B000AFF860B9603B6020
:10C9F0001346FB7148E03B68B3F1FF3F44D0FEF7BC
:10CA000061FB0246BB69D31A3A689A4202D33B687B
:10CA1000002B39D1BB681B0CDBB2012B0DD1FB689D
:10CA20001B685B69DA43BB6813409BB2002B0CBFE9
:10CA300001230023DBB21A460CE0FB681B689B69EC
:10CA4000DA43BB6813409BB2002B0CBF01230023C9
:10CA5000DBB21A46FB799A4216D1FB6800221A63B0
:10CA6000FB68202283F83D20FB68002283F83E20EB
:10CA7000FB681B6C43F02002FB681A64FB68002211
:10CA800083F83C20012323E0BB681B0CDBB2012BA5
:10CA90000DD1FB681B685B69DA43BB6813409BB22E
:10CAA000002B0CBF01230023DBB21A460CE0FB680D
:10CAB0001B689B69DA43BB6813409BB2002B0CBF19
:10CAC00001230023DBB21A46FB799A4293D000235C
:10CAD00018461037BD4680BD80B584B000AFF86001
:10CAE000B9607A603B6071E0FB681B685B6903F4C6
:10CAF0008063B3F5806F23D1FB681B681A68FB68FD
:10CB00001B6842F400721A60FB681B686FF4806255
:10CB10005A61FB6800221A63FB68202283F83D20DB
:10CB2000FB68002283F83E20FB681B6C43F0040284
:10CB3000FB681A64FB68002283F83C20012367E04D
:10CB40007B68B3F1FF3F41D0FEF7BCFA02463B6879
:10CB5000D31A7A689A4202D37B68002B36D1BB681D
:10CB60001B0CDBB2012B0CD1FB681B685B69DA4341
:10CB7000BB6813409BB2002B14BF01230023DBB220
:10CB80000BE0FB681B689B69DA43BB6813409BB2F0
:10CB9000002B14BF01230023DBB2002B16D0FB684F
:10CBA00000221A63FB68202283F83D20FB680022E4
:10CBB00083F83E20FB681B6C43F02002FB681A647C
:10CBC000FB68002283F83C20012321E0BB681B0C9A
:10CBD000DBB2012B0CD1FB681B685B69DA43BB68D5
:10CBE00013409BB2002B14BF01230023DBB20BE0E8
:10CBF000FB681B689B69DA43BB6813409BB2002B40
:10CC000014BF01230023DBB2002B7FF46DAF0023A0
:10CC100018461037BD4680BD80B584B000AFF860BF
:10CC2000B9607A6034E0F86800F086F80346002BBB
:10CC300001D0012334E0BB68B3F1FF3F28D0FEF7F9
:10CC400041FA02467B68D31ABA689A4202D3BB689B
:10CC5000002B1DD1FB681B685B6903F08003802BF0
:10CC600016D0FB6800221A63FB68202283F83D205F
:10CC7000FB68002283F83E20FB681B6C43F0200217
:10CC8000FB681A64FB68002283F83C20012307E05C
:10CC9000FB681B685B6903F08003802BC3D1002312
:10CCA00018461037BD4680BD80B584B000AFF8602F
:10CCB000B9607A6034E0F86800F03EF80346002B73
:10CCC00001D0012334E0BB68B3F1FF3F28D0FEF769
:10CCD000F9F902467B68D31ABA689A4202D3BB6854
:10CCE000002B1DD1FB681B685B6903F00403042B58
:10CCF00016D0FB6800221A63FB68202283F83D20CF
:10CD0000FB68002283F83E20FB681B6C43F0200286
:10CD1000FB681A64FB68002283F83C20012307E0CB
:10CD2000FB681B685B6903F00403042BC3D1002379
:10CD300018461037BD4680BD80B483B000AF786020
:10CD40007B681B685B6903F48063B3F5806F1BD15C
:10CD50007B681B686FF480625A617B6800221A63EB
:10CD60007B68202283F83D207B68002283F83E20E8
:10CD70007B681B6C43F004027B681A647B680022AA
:10CD800083F83C20012300E0002318460C37BD4601
:10CD90005DF8047B704780B586B002AF78607B6831
:10CDA000002B01D1012301E17B681B68BB607B681C
:10CDB00093F89534DBB2002B06D17B68002283F810
:10CDC0009424786806F014FC7B68032283F8952489
:10CDD000BB68B3F1A04F02D17B6800229A717B68D7
:10CDE0001B68184603F06FFB7B6818687B681A7C29
:10CDF0008DF8002004330ECB03F04EFA0346002BCF
:10CE000005D07B68022283F895240123CEE07B685D
:10CE10001B680021184603F067FB0346002B05D072
:10CE20007B68022283F895240123BFE00023FB7373
:10CE30004AE0FA7B79681346DB0013449B000B44FD
:10CE4000153301221A70FA7B79681346DB0013440C
:10CE50009B000B441433FA7B1A70FA7BFB7B98B26D
:10CE600079681346DB0013449B000B442E330246C3
:10CE70001A80FA7B79681346DB0013449B000B444D
:10CE8000183300221A70FA7B79681346DB001344CA
:10CE90009B000B441C3300221A60FA7B796813460E
:10CEA000DB0013449B000B44203300221A60FA7B02
:10CEB00079681346DB0013449B000B4424330022A3
:10CEC0001A60FB7B0133FB737B681B79FA7B9A4208
:10CED000AFD30023FB7344E0FA7B79681346DB0091
:10CEE00013449B000B4403F2552300221A70FA7B73
:10CEF00079681346DB0013449B000B4403F515735C
:10CF0000FA7B1A70FA7B79681346DB0013449B00A6
:10CF10000B4403F5167300221A70FA7B79681346E6
:10CF2000DB0013449B000B4403F5177300221A60C7
:10CF3000FA7B79681346DB0013449B000B4403F52E
:10CF4000187300221A60FA7B79681346DB001344D9
:10CF50009B000B4403F5197300221A60FB7B01331D
:10CF6000FB737B681B79FA7B9A42B5D37B681868A0
:10CF70007B681A7C8DF8002004330ECB03F000FB95
:10CF80000346002B05D07B68022283F895240123F9
:10CF90000CE07B6800225A747B68012283F8952498
:10CFA0007B681B68184604F04AFB002318461037BC
:10CFB000BD4680BD80B584B000AF78607B681B68DB
:10CFC000FB607B6893F89434012B01D1022322E0AB
:10CFD0007B68012283F89424FB68DB6803F040033C
:10CFE000002B09D07B685B7B012B05D1FB689B6B19
:10CFF00043F48032FB689A637B681B68184603F031
:10D0000051FA7B681B68184604F0F8FA7B68002226
:10D0100083F89424002318461037BD4680BD90B590
:10D020008DB000AF78607B681B683B623B6AFB6138
:10D030007B681B68184604F0B6FB0346002B40F0E3
:10D040008C847B681B68184604F01AFB0346002B8F
:10D0500000F08284FB6903F500639B681B0AC3F33D
:10D060000D027B68C3F8D4247B681B68184604F063
:10D0700007FB034603F00203022B07D17B681B6802
:10D080005A697B681B6802F002025A617B681B6860
:10D09000184604F0F5FA034603F01003102B61D193
:10D0A0007B681B689A697B681B6822F010029A6192
:10D0B0003B6A1B6ABB61BB6903F00F021346DB00CE
:10D0C00013449B0003F514737A68134404337B61A3
:10D0D000BB6903F4F013B3F5802F24D1BA6947F686
:10D0E000F0731340002B35D07B69D968BB691B09ED
:10D0F0009BB2C3F30A039BB21A46386A04F02CF9B8
:10D100007B69DA68BB691B09C3F30A031A447B69AC
:10D11000DA607B695A69BB691B09C3F30A031A44C5
:10D120007B695A6116E0BB6903F4F013B3F5402F35
:10D1300010D17B6803F29C4308221946386A04F038
:10D140000BF97B695A69BB691B09C3F30A031A44CB
:10D150007B695A617B681B689A697B681B6842F02F
:10D1600010029A617B681B68184604F089FA03462E
:10D1700003F40023B3F5002F40F0A78000237B6267
:10D180007B681B68184604F08EFAB86299E0BB6AA7
:10D1900003F00103002B00F08E807B681B687A6A25
:10D1A000D2B21146184604F0B2FA38613B6903F076
:10D1B0000103002B0CD07B6A5A01FB69134403F571
:10D1C00030631A4601239360796A786800F08CFE18
:10D1D0003B6903F00803002B0CD07B6A5A01FB6902
:10D1E000134403F530631A4608239360796A78681C
:10D1F00000F062FF3B6903F01003002B08D07B6A4C
:10D200005A01FB69134403F530631A4610239360F7
:10D210003B6903F00203002B30D03B6A5B6903F0EB
:10D220008003802B09D1FB6903F500635B68FA6911
:10D2300002F5006243F4806353607A6A1346DB00B0
:10D2400013449B0003F514737A68134404337B6121
:10D250007B69DB78012B08D17B690022DA707B6A5D
:10D26000DBB21946786806F0BFFA7B6A5A01FB699F
:10D27000134403F530631A46022393603B6903F0BD
:10D280002003002B08D07B6A5A01FB69134403F585
:10D2900030631A46202393603B6903F40053002B4C
:10D2A00009D07B6A5A01FB69134403F530631A46BF
:10D2B0004FF4005393607B6A01337B62BB6A5B0867
:10D2C000BB62BB6A002B7FF462AF7B681B681846A9
:10D2D00004F0D6F9034603F48023B3F5802F40F021
:10D2E000DB807B681B68184604F0F7F9B8620023FE
:10D2F0007B62CDE0BB6A03F00103002B00F0C2802B
:10D300007B681B687A6AD2B21146184604F01DFA8F
:10D3100038613B6903F00103002B57D07B6A03F0AF
:10D320000F03012202FA03F3FB60FB6903F50063BC
:10D330005A6BFB68DB43F96901F5006113404B63ED
:10D340007B6A5A01FB69134403F510631A460123F3
:10D3500093607B689B79012B32D179687A6A134696
:10D36000DB0013449B000B442033196878687A6A09
:10D370001346DB0013449B0003441C331B68194411
:10D3800078687A6A1346DB0013449B000344203319
:10D3900019607B6A002B13D179687A6A1346DB0027
:10D3A00013449B000B4424331B68002B08D17B687B
:10D3B00018687B6803F29C431A46012104F024FAA2
:10D3C0007B6ADBB21946786806F093F93B6903F093
:10D3D0000803002B08D07B6A5A01FB69134403F54C
:10D3E00010631A46082393603B6903F01003002B77
:10D3F00008D07B6A5A01FB69134403F510631A468F
:10D40000102393603B6903F04003002B08D07B6A34
:10D410005A01FB69134403F510631A4640239360D5
:10D420003B6903F00203002B23D0796A386A03F0CA
:10D430000BFA7A6A1346DB0013449B0010337A68B8
:10D44000134404337B617B69DB78012B08D17B6952
:10D450000022DA707B6ADBB21946786806F0D6F9EA
:10D460007B6A5A01FB69134403F510631A460223D1
:10D4700093603B6903F08003002B03D0796A7868DE
:10D4800000F0A5FC7B6A01337B62BB6A5B08BB6270
:10D49000BB6A002B7FF42EAF7B681B68184604F034
:10D4A000EFF8034603F00043B3F1004F22D1FB69CC
:10D4B00003F500635B68FA6902F5006223F001037B
:10D4C00053607B6893F8CC34012B08D17B68002231
:10D4D00083F8CC240021786800F08CFE02E07868A4
:10D4E00006F074F97B681B685A697B681B6802F058
:10D4F00000425A617B681B68184604F0C1F8034675
:10D5000003F40063B3F5006F12D1FB6903F5006308
:10D510009B6803F00103012B02D1786806F030F913
:10D520007B681B685A697B681B6802F400625A6159
:10D530007B681B68184604F0A3F8034603F4805385
:10D54000B3F5805F40F0B780FB6903F500635B686B
:10D55000FA6902F5006223F0010353607B681B68DF
:10D560001021184603F070F90023FB6246E0FB6AC5
:10D570005A01FB69134403F510631A464FF67F33D3
:10D580009360FB6A5A01FB69134403F510631B683F
:10D59000FA6A5101FA690A4402F5106223F4001391
:10D5A0001360FB6A5A01FB69134403F530631A46A2
:10D5B0004FF67F339360FB6A5A01FB69134403F50E
:10D5C00030631B68FA6A5101FA690A4402F5306255
:10D5D00023F400131360FB6A5A01FB69134403F53B
:10D5E00030631B68FA6A5101FA690A4402F5306235
:10D5F00043F000631360FB6A0133FB627B681B79B5
:10D600001A46FB6A9342B2D3FB6903F50063DB69F8
:10D61000FA6902F5006243F00113D3617B68DB7B9A
:10D62000002B16D0FB6903F50063D3F88430FA6948
:10D6300002F5006243F00B03C2F88430FB6903F586
:10D6400000635B6CFA6902F5006243F00B035364FC
:10D6500015E0FB6903F500635B69FA6902F5006296
:10D6600043F4005343F02B035361FB6903F500635C
:10D670001B69FA6902F5006243F00B031361FB6951
:10D6800003F500631B68FA6902F5006223F4FE6388
:10D6900013607B6818687B6899797B6803F29C4308
:10D6A0001A4604F0B1F87B681B685A697B681B68EE
:10D6B00002F480525A617B681B68184603F0E0FF51
:10D6C000034603F40053B3F5005F23D17B681B6866
:10D6D000184604F076F87B681B68184603F02DF9AD
:10D6E00003461A467B68DA717B681C6801F0F2F920
:10D6F00001467B68DB791A46204602F031FE7868E5
:10D7000006F01FF87B681B685A697B681B6802F487
:10D7100000525A617B681B68184603F0B1FF03464C
:10D7200003F00803082B0AD1786805F0FCFF7B683A
:10D730001B685A697B681B6802F008025A617B68A3
:10D740001B68184603F09CFF034603F08003802B00
:10D7500023D13B6A9B6923F080023B6A9A610123D3
:10D760007B6214E079687A6A1346DB0013449B00FD
:10D770000B4403F257231B78012B05D17B6ADBB2E4
:10D780001946786800F0F2FA7B6A01337B627B68A5
:10D790001B791A467B6A9342E4D37B681B68184660
:10D7A00003F06EFF034603F48013B3F5801F3CD1F2
:10D7B00001237B622BE07B6A5A01FB69134403F56A
:10D7C00010631B68BB6179687A6A1346DB001344F7
:10D7D0009B000B4418331B78012B15D1BB69002B20
:10D7E00012DA79687A6A1346DB0013449B000B4413
:10D7F000173301221A707B6ADBB263F07F03DBB25E
:10D800001946786800F0B2FA7B6A01337B627B6864
:10D810001B791A467B6A9342CDD37B681B685A6991
:10D820007B681B6802F480125A617B681B6818468B
:10D8300003F026FF034603F40013B3F5001F56D18F
:10D8400001237B6245E07B6A5A01FB69134403F5BF
:10D8500030631B68BB6179687A6A1346DB00134446
:10D860009B000B4403F516731B78012B2ED1BB696B
:10D87000002B2BDABB691A0C7B68D3F8D4345340E5
:10D8800003F00103002B21D179687A6A1346DB008B
:10D8900013449B000B4403F2572301221A703B6A86
:10D8A0009B6943F080023B6A9A613B6A5B6903F0C3
:10D8B0008003002B0AD1FB6903F500635B68FA69FA
:10D8C00002F5006243F40073536008E07B6A0133A1
:10D8D0007B627B681B791A467B6A9342B3D37B6871
:10D8E0001B685A697B681B6802F400125A617B68E6
:10D8F0001B68184603F0C4FE034603F08043B3F1EF
:10D90000804F0AD1786805F093FF7B681B685A69DD
:10D910007B681B6802F080425A617B681B6818466E
:10D9200003F0AEFE034603F00403042B15D17B681D
:10D930001B685B68BB61BB6903F00403002B02D06A
:10D94000786805F083FF7B681B6859687B681B68F3
:10D95000BA690A435A6000E000BF3437BD4690BD43
:10D9600080B582B000AF78600B46FB707B6893F89F
:10D970009434012B01D1022312E07B68012283F849
:10D9800094247B68FA785A747B681B68FA7811468D
:10D99000184603F00DFE7B68002283F894240023D0
:10D9A00018460837BD4680BD80B584B000AF7860AA
:10D9B000084611461A460346FB700B463B80134649
:10D9C000BB700023FB7297F90330002B0FDAFB7852
:10D9D00003F00F021346DB0013449B0010337A68F8
:10D9E00013440433FB60FB6801225A700FE0FB789C
:10D9F00003F00F021346DB0013449B0003F514737E
:10DA00007A6813440433FB60FB6800225A70FB7889
:10DA100003F00F03DAB2FB681A703B88C3F30A0203
:10DA2000FB689A60FB68BA781A71FB685B78002B18
:10DA300004D0FB681B781A46FB685A83BB78022B1C
:10DA400002D1FB6800225A717B6893F89434012B51
:10DA500001D102230EE07B68012283F894247B68C5
:10DA60001B68F968184602F08DFF7B68002283F876
:10DA70009424FB7A18461037BD4680BD80B584B02B
:10DA800000AF78600B46FB7097F90330002B0FDA7C
:10DA9000FB7803F00F021346DB0013449B001033A6
:10DAA0007A6813440433FB60FB6801225A700FE06C
:10DAB000FB7803F00F021346DB0013449B0003F5D1
:10DAC00014737A6813440433FB60FB6800225A70B5
:10DAD000FB7803F00F03DAB2FB681A707B6893F8E7
