:020000040800F2
:1080000000000220A9A30008219D0008299D000866
:10801000319D0008399D0008419D000800000000C6
:10802000000000000000000000000000499D000862
:10803000579D000800000000659D0008739D000822
:10804000F9A30008F9A30008F9A30008F9A30008A0
:10805000F9A30008F9A30008F9A30008F9A3000890
:10806000F9A30008F9A30008F9A30008F9A3000880
:10807000F9A30008F9A30008F9A30008F9A3000870
:10808000F9A30008F9A30008F9A300080000000004
:10809000000000000000000000000000F9A300083C
:1080A000F9A30008F9A30008F9A30008F9A3000840
:1080B000F9A30008F9A30008819D0008F9A30008AE
:1080C000F9A30008F9A30008F9A30008F9A3000820
:1080D000F9A30008F9A30008F9A3000800000000B4
:1080E000F9A30008F9A30008F9A3000800000000A4
:1080F000000000000000000000000000F9A30008DC
:1081000000000000F9A30008F9A30008F9A3000883
:10811000000000000000000000000000000000005F
:10812000959D0008F9A30008F9A30008F9A3000829
:10813000F9A300080000000000000000000000009B
:10814000000000000000000000000000A99D0008E1
:10815000F9A30008F9A30008F9A30008F9A300088F
:10816000F9A30008F9A300080000000000000000C7
:1081700000000000000000000000000000000000FF
:1081800000000000F9A3000800000000000000004B
:08819000F9A30008F9A300089F
:1081A00010B5054C237833B9044B13B10448AFF331
:1081B00000800123237010BDEC02002000000000AD
:1081C0005C5A010808B5034B1BB103490348AFF3E0
:1081D000008008BD00000000F00200205C5A010889
:1081E00001F0FF01102A2BDB10F0070F08D010F868
:1081F000013B013A8B422DD010F0070F42B3F6D16C
:10820000F0B441EA012141EA014122F007047FF084
:1082100000070023F0E80256083C85EA010586EADB
:10822000010685FA47F5A3FA87F586FA47F6A5FA17
:1082300087F68EB9EED1F0BC01F0FF0102F0070223
:1082400032B110F8013B013A83EA010313B1F8D1CE
:108250000020704701387047002D06BF35460338AF
:10826000073815F0010F07D1013015F4807F02BFE8
:10827000013015F4C03F0130F0BC0138704700BF39
:10828000034613F8012B002AFBD1181A0138704756
:1082900081F0004102E000BF83F0004330B54FEAB7
:1082A00041044FEA430594EA050F08BF90EA020F24
:1082B0001FBF54EA000C55EA020C7FEA645C7FEAB7
:1082C000655C00F0E2804FEA5454D4EB5555B8BFDA
:1082D0006D420CDD2C4480EA020281EA030382EA4B
:1082E000000083EA010180EA020281EA0303362DDD
:1082F00088BF30BD11F0004F4FEA01314FF4801CB0
:108300004CEA113102D0404261EB410113F0004FC1
:108310004FEA03334CEA133302D0524263EB430378
:1083200094EA050F00F0A780A4F10104D5F1200E16
:108330000DDB02FA0EFC22FA05F2801841F1000171
:1083400003FA0EF2801843FA05F359410EE0A5F145
:1083500020050EF1200E012A03FA0EFC28BF4CF076
:10836000020C43FA05F3C01851EBE37101F000452C
:1083700007D54FF0000EDCF1000C7EEB00006EEB39
:108380000101B1F5801F1BD3B1F5001F0CD34908C3
:108390005FEA30004FEA3C0C04F101044FEA44521A
:1083A00012F5800F80F09A80BCF1004F08BF5FEAA1
:1083B000500C50F1000041EB045141EA050130BD81
:1083C0005FEA4C0C404141EB0101013C28BFB1F593
:1083D000801FE9D291F0000F04BF01460020B1FADE
:1083E00081F308BF2033A3F10B03B3F120020CDAB1
:1083F0000C3208DD02F1140CC2F10C0201FA0CF08F
:1084000021FA02F10CE002F11402D8BFC2F1200CF3
:1084100001FA02F120FA0CFCDCBF41EA0C019040A9
:10842000E41AA2BF01EB0451294330BD6FEA0404F2
:108430001F3C1CDA0C340EDC04F11404C4F12002DD
:1084400020FA04F001FA02F340EA030021FA04F3EF
:1084500045EA030130BDC4F10C04C4F1200220FA46
:1084600002F001FA04F340EA0300294630BD21FA84
:1084700004F0294630BD94F0000F83F4801306BF4A
:1084800081F480110134013D4EE77FEA645C18BF3E
:108490007FEA655C29D094EA050F08BF90EA020FD5
:1084A00005D054EA000C04BF1946104630BD91EACD
:1084B000030F1EBF0021002030BD5FEA545C05D1D0
:1084C0004000494128BF41F0004130BD14F580040F
:1084D0003CBF01F5801130BD01F0004545F0FE4183
:1084E00041F470014FF0000030BD7FEA645C1ABFB8
:1084F000194610467FEA655C1CBF0B46024650EAEF
:10850000013406BF52EA033591EA030F41F400211A
:1085100030BD00BF90F0000F04BF0021704730B5A0
:108520004FF4806404F132044FF000054FF0000175
:1085300050E700BF90F0000F04BF0021704730B536
:108540004FF4806404F1320410F0004548BF40420B
:108550004FF000013EE700BF42004FEAE2014FEA60
:1085600031014FEA02701FBF12F07F4393F07F4F3B
:1085700081F06051704732F07F4208BF704793F03E
:108580007F4F04BF41F40021704730B54FF4607451
:1085900001F0004521F000411CE700BF50EA010254
:1085A00008BF704730B54FF000050AE050EA0102FD
:1085B00008BF704730B511F0004502D5404261EB6D
:1085C00041014FF4806404F132045FEA915C3FF4AE
:1085D000D8AE4FF003025FEADC0C18BF03325FEA4B
:1085E000DC0C18BF033202EBDC02C2F1200300FAFC
:1085F00003FC20FA02F001FA03FE40EA0E0021FA21
:1086000002F11444BDE600BF70B54FF0FF0C4CF40E
:10861000E06C1CEA11541DBF1CEA135594EA0C0FC0
:1086200095EA0C0F00F0DEF82C4481EA030621EAFB
:108630004C5123EA4C5350EA013518BF52EA033536
:1086400041F4801143F4801338D0A0FB02CE4FF0E8
:108650000005E1FB02E506F00042E0FB03E54FF018
:108660000006E1FB03569CF0000F18BF4EF0010E10
:10867000A4F1FF04B6F5007F64F5407404D25FEA0C
:108680004E0E6D4146EB060642EAC62141EA5551BF
:108690004FEAC52040EA5E504FEACE2EB4F1FD0C01
:1086A00088BFBCF5E06F1ED8BEF1004F08BF5FEA7F
:1086B000500E50F1000041EB045170BD06F0004631
:1086C00046EA010140EA020081EA0301B4EB5C04DE
:1086D000C2BFD4EB0C0541EA045170BD41F48011D6
:1086E0004FF0000E013C00F3AB8014F1360FDEBFFB
:1086F000002001F0004170BDC4F10004203C35DAD7
:108700000C341BDC04F11404C4F1200500FA05F359
:1087100020FA04F001FA05F240EA020001F00042FA
:1087200021F0004110EBD37021FA04F642EB060170
:108730005EEA430E08BF20EAD37070BDC4F10C049A
:10874000C4F1200500FA04F320FA05F001FA04F25E
:1087500040EA020001F0004110EBD37041F100014A
:108760005EEA430E08BF20EAD37070BDC4F1200555
:1087700000FA05F24EEA020E20FA04F301FA05F2BD
:1087800043EA020321FA04F001F0004121FA04F265
:1087900020EA020000EBD3705EEA430E08BF20EA35
:1087A000D37070BD94F0000F0FD101F0004640006F
:1087B00041EB010111F4801F08BF013CF7D041EAF1
:1087C000060195F0000F18BF704703F000465200F5
:1087D00043EB030313F4801F08BF013DF7D043EAC6
:1087E0000603704794EA0C0F0CEA135518BF95EA7C
:1087F0000C0F0CD050EA410618BF52EA4306D1D103
:1088000081EA030101F000414FF0000070BD50EA21
:10881000410606BF1046194652EA430619D094EAAB
:108820000C0F02D150EA013613D195EA0C0F05D195
:1088300052EA03361CBF104619460AD181EA0301E9
:1088400001F0004141F0FE4141F470014FF00000A1
:1088500070BD41F0FE4141F4780170BD70B54FF03C
:10886000FF0C4CF4E06C1CEA11541DBF1CEA1355BC
:1088700094EA0C0F95EA0C0F00F0A7F8A4EB05049E
:1088800081EA030E52EA03354FEA013100F0888095
:108890004FEA03334FF0805545EA131343EA12635E
:1088A0004FEA022245EA111545EA10654FEA002613
:1088B0000EF000419D4208BF964244F1FD0404F5CC
:1088C000407402D25B084FEA3202B61A65EB030528
:1088D0005B084FEA32024FF480104FF4002CB6EBE5
:1088E000020E75EB030E22BFB61A754640EA0C0065
:1088F0005B084FEA3202B6EB020E75EB030E22BFA5
:10890000B61A754640EA5C005B084FEA3202B6EBE5
:10891000020E75EB030E22BFB61A754640EA9C00A4
:108920005B084FEA3202B6EB020E75EB030E22BF74
:10893000B61A754640EADC0055EA060E18D04FEA32
:10894000051545EA16754FEA06164FEAC30343EAD2
:1089500052734FEAC2025FEA1C1CC0D111F4801F9F
:108960000BD141EA00014FF000004FF0004CB6E798
:1089700011F4801F04BF01430020B4F1FD0C88BF37
:10898000BCF5E06F3FF6AFAEB5EB030C04BFB6EB42
:10899000020C5FEA500C50F1000041EB045170BD35
:1089A0000EF0004E4EEA113114EB5C04C2BFD4EB62
:1089B0000C0541EA045170BD41F480114FF0000EE6
:1089C000013C90E645EA060E8DE60CEA135594EA62
:1089D0000C0F08BF95EA0C0F3FF43BAF94EA0C0F65
:1089E0000AD150EA01347FF434AF95EA0C0F7FF4DA
:1089F00025AF104619462CE795EA0C0F06D152EA2E
:108A000003353FF4FDAE1046194622E750EA410611
:108A100018BF52EA43067FF4C5AE50EA41047FF422
:108A20000DAF52EA43057FF4EBAE12E74FF0FF3C87
:108A300006E000BF4FF0010C02E000BF4FF0010C58
:108A40004DF804CD4FEA410C7FEA6C5C4FEA430CD1
:108A500018BF7FEA6C5C1BD001B050EA410C0CBF20
:108A600052EA430C91EA030F02BF90EA020F002082
:108A7000704710F1000F91EA030F58BF994208BFE9
:108A800090422CBFD8176FEAE37040F001007047A6
:108A90004FEA410C7FEA6C5C02D150EA013C07D1FD
:108AA0004FEA430C7FEA6C5CD6D152EA033CD3D048
:108AB0005DF8040B704700BF8446104662468C4642
:108AC0001946634600E000BF01B5FFF7B7FF002875
:108AD00048BF10F1000F01BD4DF808EDFFF7F4FF9E
:108AE0000CBF012000205DF808FB00BF4DF808ED29
:108AF000FFF7EAFF34BF012000205DF808FB00BF4C
:108B00004DF808EDFFF7E0FF94BF012000205DF86D
:108B100008FB00BF4DF808EDFFF7CEFF94BF012022
:108B200000205DF808FB00BF4DF808EDFFF7C4FF1B
:108B300034BF012000205DF808FB00BF4FEA410C64
:108B40007FEA6C5C02D150EA013C0AD14FEA430C47
:108B50007FEA6C5C02D152EA033C02D14FF0000084
:108B600070474FF0010070474FEA410212F50012C2
:108B700015D211D56FF47873B3EB625212D94FEA64
:108B8000C12343F0004343EA505311F0004F23FA4E
:108B900002F018BF404270474FF00000704750EAA3
:108BA000013005D111F0004008BF6FF00040704760
:108BB0004FF00000704700BF53B94AB9002908BF01
:108BC00000281CBF4FF0FF314FF0FF3000F088B994
:108BD000ADF1080C6DE904CE00F006F8DDF804E014
:108BE000DDE9022304B070472DE9F047089D8E4669
:108BF00004468846002B4AD18A42174662D9B2FA07
:108C000082F64EB1C6F1200301FA06F820FA03F30A
:108C1000B74043EA0808B4404FEA174E1FFA87FCF2
:108C2000B8FBFEF1230C0EFB118843EA084301FB5D
:108C30000CF29A4209D9FB1801F1FF3080F0EA806A
:108C40009A4240F2E78002393B449A1AA3B2B2FB3F
:108C5000FEF00EFB102243EA024300FB0CFC9C4595
:108C600009D9FB1800F1FF3280F0D6809C4540F214
:108C7000D3803B44023840EA0140A3EB0C030021BF
:108C80001DB1F3400022C5E90032BDE8F0878B42F8
:108C900005D90DB1C5E9000100210846F5E7B3FA91
:108CA00083F1002946D1734502D3824200F2058147
:108CB000841A6EEB030201209046002DE5D0C5E931
:108CC0000048E2E7002A00F09080B2FA82F6002E17
:108CD00040F0A4808A1A030C4FEA174E80B2BCB24F
:108CE0000121B2FBFEFC0EFB1C2243EA024304FB03
:108CF0000CF29A4207D9FB180CF1FF3802D29A42C3
:108D000000F2E080C4469B1AB3FBFEF20EFB123366
:108D100040EA034302FB04F49C4207D9FB1802F12A
:108D2000FF3002D29C4200F2CA8002461B1B42EA7C
:108D30000C40A5E7C1F120068B4022FA06F71F433D
:108D40000EFA01F420FA06F32EFA06FE4FEA17494E
:108D5000234300FA01F81FFA87FCBEFBF9F01C0C54
:108D600009FB10EE44EA0E4400FB0CFEA64502FA95
:108D700001F209D93C1900F1FF3A80F09C80A64528
:108D800040F2998002383C44A4EB0E041FFA83FEA3
:108D9000B4FBF9F309FB13444EEA044403FB0CFC57
:108DA000A44508D93C1903F1FF3E80F08280A44518
:108DB0007FD9023B3C4443EA0040A4EB0C04A0FBF7
:108DC00002EC64457346E14662D35FD05DB1B8EB17
:108DD000030264EB090404FA06F622FA01F31E43C7
:108DE000CC40C5E9006400214FE7B1FBF2FC010C67
:108DF00041EA0E4180B240EA01423B4638463C46D9
:108E0000B846BE462026B1FBF7F1A2EB080241EAC4
:108E10000C4166E7014618E710462CE7C6F1200230
:108E20002EFA02F3B740B14020FA02F24FEA174E91
:108E30000A43B3FBFEF8BCB20EFB1833110C41EA37
:108E4000034108FB04F9B04089454FEA104380B262
:108E50003ED9791808F1FF3C01D289451FD8A1EB12
:108E60000901B1FBFEF909FB04F80EFB191192B2DE
:108E700042EA0142424529D2BA1809F1FF31C4D26F
:108E80004245C2D2A9F102013A44BEE7F0459DD263
:108E9000BEEB02036CEB070C0138E14696E7A7EB4B
:108EA00009094944A8F1020CB1FBFEF909FB04F8D9
:108EB000DBE773467FE7504666E70846FDE63B443E
:108EC000023A33E7ACF1020C3B441CE749469CE70D
:108ED000A1EB0901C446B1FBFEF909FB04F8C4E7A4
:108EE000704700BF80B584B000AF3B4600221A60D7
:108EF0005A609A60DA60214B214A1A601F4B0022A7
:108F00005A601E4B00229A601C4B00221A611B4BB8
:108F100001221A76194B002283F82020174B0022D9
:108F2000DA62164B174A9A62144B0022DA60134B2E
:108F30000122DA61114B012283F830200F4B01220C
:108F40005A610E4801F0F0FA0346002B01D000F000
:108F5000EDFA00233B6001237B600023BB603B46AE
:108F60001946064801F024FB0346002B01D000F00F
:108F7000DDFA00BF1037BD4680BD00BF08030020EA
:108F8000002001400100000F80B58AB000AF78607A
:108F900007F1140300221A605A609A60DA601A61BD
:108FA0007B681B682F4A934257D100233B612E4BAD
:108FB0005B6C2D4A43F4807353642B4B5B6C03F45E
:108FC00080733B613B690023FB60274B1B6B264A88
:108FD00043F001031363244B1B6B03F00103FB609D
:108FE000FB682F237B610323BB610023FB6107F137
:108FF000140319461D4802F005F91D4B1D4A1A605D
:109000001B4B00225A601A4B00229A60184B002218
:10901000DA60174B4FF480621A61154B4FF400620F
:109020005A61134B4FF400529A61114B4FF4807206
:10903000DA610F4B00221A620D4B00225A620C4873
:1090400001F0F6FD0346002B01D000F06FFA7B68BB
:10905000074A9A63064A7B68936300BF2837BD4678
:1090600080BD00BF002001400038024000000240E7
:10907000500300201064024080B582B000AF00238E
:109080007B600C4B1B6B0B4A43F480031363094B4F
:109090001B6B03F480037B607B6800220021382077
:1090A00001F08FFD382001F0A8FD00BF0837BD4654
:1090B00080BD00BF0038024080B58CB000AF07F122
:1090C0001C0300221A605A609A60DA601A61002359
:1090D000BB615B4B1B6B5A4A43F010031363584B45
:1090E0001B6B03F01003BB61BB6900237B61544B16
:1090F0001B6B534A43F004031363514B1B6B03F088
:1091000004037B617B6900233B614D4B1B6B4C4A25
:1091100043F0800313634A4B1B6B03F080033B61F6
:109120003B690023FB60464B1B6B454A43F0010340
:109130001363434B1B6B03F00103FB60FB680023CD
:10914000BB603F4B1B6B3E4A43F0020313633C4B37
:109150001B6B03F00203BB60BB6800237B60384BD2
:109160001B6B374A43F008031363354B1B6B03F04B
:1091700008037B607B6800222021324802F0C6F998
:109180000423FB6100233B6200237B6207F11C0385
:1091900019462D4802F036F84FF40053FB610023C6
:1091A0003B6200237B6207F11C031946274802F04B
:1091B00029F81023FB614FF488133B6200237B6284
:1091C00007F11C031946224802F01CF84FF42073E3
:1091D000FB6100233B6200237B6207F11C031946FD
:1091E0001B4802F00FF84FF48043FB6100233B6201
:1091F00001237B6207F11C031946124802F002F8B2
:109200002023FB6101233B6200237B620023BB62BE
:1092100007F11C0319460B4801F0F4FF4FF44073AB
:10922000FB6100233B6200237B6207F11C031946AC
:10923000044801F0E7FF00BF3037BD4680BD00BFE6
:1092400000380240000402400010024000080240C2
:109250000000024080B500AF124B134A1A60114B58
:10926000124A5A600F4B00229A600E4B0022DA60BD
:109270000C4B4FF480421A610A4B00225A61094B91
:1092800000229A61074B0022DA61064B00221A6223
:10929000044802F055F90346002B01D000F046F9CE
:1092A00000BF80BDB003002000540040A086010034
:1092B00080B58AB000AF786007F1140300221A600D
:1092C0005A609A60DA601A617B681B68194A934297
:1092D0002BD100233B61184B1B6B174A43F0020351
:1092E0001363154B1B6B03F002033B613B69C02307
:1092F0007B611223BB610023FB6103233B620423D8
:109300007B6207F1140319460C4801F07BFF002330
:10931000FB60094B1B6C084A43F400131364064BB3
:109320001B6C03F40013FB60FB6800BF2837BD46CD
:1093300080BD00BF005400400038024000040240DD
:1093400080B584B000AFF860B9607A607B689AB28B
:109350000A23B968034805F065FC7B681846103796
:10936000BD4680BDE806002080B586B000AF324B18
:10937000324A9A6072B600BF01F040F862B600BF90
:1093800000F06AF8FFF798FEFFF776FEFFF7AAFDF8
:10939000FFF760FF00F0CEFD00F034FF00F06CFE40
:1093A00009F072F800F058FF25480AF01BFA3B1D3F
:1093B00000221A605A609A60DA601A6120237B608A
:1093C0000123BB600023FB6000233B613B1D19466A
:1093D0001C4801F017FF012220211A4802F096F8DC
:1093E0004FF4FA7001F07CF800222021154802F0B9
:1093F0008DF815480AF0F6F914480AF0F3F900F070
:109400009BF80346002B11D011480AF0EBF900F04D
:1094100053FA4FF47A7001F063F800F027FB4FF431
:109420007A7001F05DF800F053FB03E009480AF0A0
:10943000D9F900BF00BFFDE700ED00E000800008A3
:109440008C5B010800000240A45B0108B85B0108C6
:10945000E45B0108045C010880B594B000AF07F13B
:1094600020033022002118460AF0BEFA07F10C034F
:1094700000221A605A609A60DA601A6104F0E0FB18
:109480000023BB60274B1B6C264A43F080531364B8
:10949000244B1B6C03F08053BB60BB6800237B60D4
:1094A000214B1B68204A43F4404313601E4B1B684A
:1094B00003F440437B607B6801233B624FF48033BD
:1094C0007B620223BB634FF48003FB6304233B6492
:1094D00048237B640223BB640323FB6407F120035E
:1094E000184603F015FF0346002B01D000F01EF8CC
:1094F0000F23FB6002233B6100237B614FF4805309
:10950000BB610023FB6107F10C030221184604F044
:1095100077F90346002B01D000F008F800BF503760
:10952000BD4680BD003802400070004080B400AFEE
:1095300072B600BF00BFFDE780B500AF642000F049
:10954000CFFFAE2000F092FB202000F08FFB102018
:1095500000F08CFBB02000F089FBC82000F086FBF7
:10956000002000F083FB102000F080FB402000F082
:109570007DFB812000F07AFBFF2000F077FBA1202B
:1095800000F074FBA62000F071FBA82000F06EFB39
:109590001F2000F06BFBA42000F068FBD32000F03C
:1095A00065FB002000F062FBD52000F05FFBF0209F
:1095B00000F05CFBD92000F059FB222000F056FBA4
:1095C000DA2000F053FB022000F050FBDB2000F01B
:1095D0004DFB202000F04AFB8D2000F047FB1420BB
:1095E00000F044FBAF2000F041FB002000F014F835
:1095F00000F036F8074B00221A80064B00225A80F2
:10960000044B01225A71034B01229A71012318461F
:1096100080BD00BF0404002080B485B000AF0346C5
:10962000FB710023FB600DE0FB79002B01D10021D1
:1096300000E0FF21094AFB6813440A461A70FB68E0
:109640000133FB60FB68B3F5007FEDD300BF00BFC3
:109650001437BD465DF8047B704700BF0C04002042
:1096600080B582B000AF0023FB7116E0FB79503B60
:10967000DBB2184600F0FAFA002000F0F7FA1020EA
:1096800000F0F4FAFB79DB01084A13448021184604
:1096900000F004FBFB790133FB71FB79072BE5D963
:1096A00000BF00BF0837BD4680BD00BF0C040020CE
:1096B00080B483B000AF0346FB710B46BB71134609
:1096C0007B7197F90730002B48DBBB791F2B45D8FE
:1096D000254B1B79002B06D07B79002B0CBF012377
:1096E0000023DBB27B717B79012B1AD1FA79BB792C
:1096F000DB08D8B20346DB0113441C4AD35C5AB2E0
:10970000BB7903F00703012101FA03F35BB21343B2
:1097100059B2FA790346DB011344C9B2134AD15452
:109720001DE0FA79BB79DB08D8B20346DB011344AC
:109730000E4AD35C5AB2BB7903F00703012101FA48
:1097400003F35BB2DB435BB2134059B2FA790346D1
:10975000DB011344C9B2054AD15400E000BF0C3705
:10976000BD465DF8047B7047040400200C04002013
:1097700090B589B000AF0446381D80E806001A464F
:109780002346FB731346BB73FB7B1F2B02D9FB7B6A
:109790007E2B01D9002388E0464B1B881A463B7973
:1097A00013447F2B06DC434B5B881A467B791344BA
:1097B0001F2B01DD002378E0FB7B203B7B61002336
:1097C000FB614AE0BA687B7919467B6903FB01F1CA
:1097D000FB690B4413441B783B610023BB6134E0FD
:1097E0003A69BB6902FA03F303F08003002B12D03D
:1097F000304B1B88DAB2BB69DBB21344D8B22D4BB5
:109800005B88DAB2FB69DBB21344DBB2BA7B194680
:10981000FFF74EFF16E0274B1B88DAB2BB69DBB2BD
:109820001344D8B2234B5B88DAB2FB69DBB2134432
:10983000D9B2BB7B002B0CBF01230023DBB21A463D
:10984000FFF736FFBB690133BB613B791A46BB6941
:109850009342C5D3FB690133FB617B791A46FB69EF
:109860009342AFD3134B1B883A7913449AB2114BEE
:109870001A80104B1B881A463B7913447F2B13DD4B
:109880000C4B00221A800B4B5B887A7913449AB2F6
:10989000084B5A80074B5B881A467B7913441F2B71
:1098A00002DD044B00225A80FB7B18462437BD465C
:1098B00090BD00BF0404002080B500AF574809F0F8
:1098C00091FF574B5B79002B03D1564809F08AFF73
:1098D000A2E0554809F086FF0020FFF79DFE002119
:1098E000002000F0ABF9514A012306CA504800F0AD
:1098F00083F9FFF7B5FE4FF4FA6000F0F1FD4D4833
:1099000009F070FF0020FFF787FE0021002000F023
:1099100095F9464A012306CA474800F06DF90C2123
:10992000002000F08BF9414A012306CA434800F0A9
:1099300063F9FFF795FE40F6B83000F0D1FD4048DE
:1099400009F050FF0020FFF767FE0021002000F023
:1099500075F9364A012306CA3A4800F04DF90C2140
:10996000002000F06BF9314A012306CA364800F0A6
:1099700043F9FFF775FE40F6B83000F0B1FD33480B
:1099800009F030FF0020FFF747FE0021002000F023
:1099900055F9264A012306CA2D4800F02DF90C215D
:1099A000002000F04BF9214A012306CA294800F0A3
:1099B00023F9FFF755FE40F6B83000F091FD264838
:1099C00009F010FF0020FFF727FE0021002000F023
:1099D00035F9164A012306CA204800F00DF90C217A
:1099E000002000F02BF9114A012306CA1C4800F0A0
:1099F00003F91821002000F021F90C4A012306CABE
:109A0000184800F0F9F8FFF72BFE40F6B83000F0E8
:109A100067FD154809F0E6FE80BD00BF245C010823
:109A200004040020505C0108705C01080000002064
:109A30008C5C0108985C0108B85C0108C85C0108EE
:109A4000D85C0108F85C0108085D0108185D010890
:109A5000305D01083C5D0108485D0108645D010856
:109A6000705D01087C5D0108885D010880B500AF6C
:109A7000124809F0B7FE0020FFF7CEFD00210020BC
:109A800000F0DCF80E4A012306CA0E4800F0B4F8D4
:109A90000C21002000F0D2F8094A012306CA0A4826
:109AA00000F0AAF8FFF7DCFD4FF4FA6000F018FDB3
:109AB000064809F097FE00BF80BD00BF305E010878
:109AC00000000020485E0108545E0108605E010845
:109AD00090B591B000AF3E4809F084FE0023FB63CF
:109AE0000020FFF799FD0021002000F0A7F807F102
:109AF0002803FA6B3749184609F07CFE364A07F10D
:109B00002800012306CA00F077F80C21002000F09D
:109B100095F800F0D9FC0346304AA2FB03239A09CA
:109B200007F114032E49184609F064FE2A4A07F18A
:109B30001400012306CA00F05FF81821002000F08D
:109B40007DF8FA6B274BA3FB0213DB081A2101FBFC
:109B500003F3D31A03F14104F96B234BA3FB012355
:109B6000DA0813469B0013445B00CA1A38461346B2
:109B700022461E4909F03EFE174A3846012306CA0E
:109B800000F03AF8FFF76CFDFB6B0133FB634FF419
:109B90007A7000F0A5FCF96B134BA3FB0123DA08E4
:109BA00013469B0013445B00CA1A002A03D1F96BC9
:109BB0000F4809F0AFFDFB6B632B00D890E700BFA7
:109BC0000C4809F00FFE00BF4437BD4690BD00BFF2
:109BD0007C5E0108A05E010800000020D34D6210E9
:109BE000AC5E01084FECC44ECDCCCCCCB85E0108C5
:109BF000C45E0108E45E010880B584B000AFF8607F
:109C0000381D80E80600FB700FE0FB681878FB78D1
:109C10003A1D06CAFFF7ACFD03461A46FB681B78DF
:109C20009A4207D1FB680133FB60FB681B78002B6D
:109C3000EBD100E000BF1037BD4680BD80B483B0DB
:109C400000AF03460A46FB711346BB71FB799AB21B
:109C5000054B1A80BB799AB2034B5A8000BF0C3770
:109C6000BD465DF8047B70470404002080B586B0D3
:109C700004AF0346FB714FF0FF33029301230193BE
:109C8000FB1D0093012300227821034801F09CFD75
:109C900000BF0837BD4680BDB003002080B586B048
:109CA00004AF786039603B689BB24FF0FF3202929C
:109CB00001937B680093012340227821034801F03F
:109CC00083FD00BF0837BD4680BD00BFB003002044
:109CD00080B582B000AF00237B60104B5B6C0F4AF5
:109CE00043F4804353640D4B5B6C03F480437B600F
:109CF0007B6800233B60094B1B6C084A43F0805390
:109D00001364064B1B6C03F080533B603B680720D9
:109D100000F04CFF00BF0837BD4680BD0038024050
:109D200080B400AF00BFFDE780B400AF00BFFDE727
:109D300080B400AF00BFFDE780B400AF00BFFDE717
:109D400080B400AF00BFFDE780B400AF00BFBD46E8
:109D50005DF8047B704780B400AF00BFBD465DF87E
:109D6000047B704780B400AF00BFBD465DF8047B44
:109D7000704780B500AF00F093FB00BF80BD0000CE
:109D800080B500AF024804F0D1F800BF80BD00BF2D
:109D90005806002080B500AF024800F0F7FF00BF72
:109DA00080BD00BF5003002080B500AF024802F024
:109DB000B8F900BF80BD00BF140C002080B400AF14
:109DC00001231846BD465DF8047B704780B582B01C
:109DD00000AF7860396009F059FE034616221A6018
:109DE0004FF0FF3318460837BD4680BD80B582B0BE
:109DF00000AF78604FF0FF317868FFF7E7FF00BFF2
:109E0000FDE780B586B000AFF860B9607A600023E6
:109E10007B610AE0AFF300800146BB685A1CBA6060
:109E2000CAB21A707B6901337B617A697B689A4296
:109E3000F0DB7B6818461837BD4680BD80B483B020
:109E400000AF78604FF0FF3318460C37BD465DF821
:109E5000047B704780B483B000AF786039603B68A2
:109E60004FF400525A60002318460C37BD465DF887
:109E7000047B704780B483B000AF7860012318463C
:109E80000C37BD465DF8047B704780B485B000AFE9
:109E9000F860B9607A60002318461437BD465DF853
:109EA000047B704780B586B000AF7860144A154BCC
:109EB000D31A7B617B693B61134B1B68002B02D17A
:109EC000114B124A1A60104B1A687B6813443A69A6
:109ED0009A4207D209F0DAFD03460C221A604FF0CD
:109EE000FF3309E0084B1B68FB60074B1A687B686F
:109EF0001344054A1360FB6818461837BD4680BDF9
:109F000000000220000400000C060020581200206F
:109F100080B400AF064BD3F88830054A43F4700391
:109F2000C2F8883000BFBD465DF8047B704700BFB3
:109F300000ED00E080B596B000AF07F148030022C5
:109F40001A605A609A60DA6007F1400300221A60D2
:109F50005A6007F1240300221A605A609A60DA609E
:109F60001A615A619A613B1D20220021184609F0AE
:109F70003BFD3F4B3F4A1A603D4B47225A603C4BEA
:109F800000229A603A4B40F2E732DA60384B002206
:109F90001A61374B00225A61354B00229A613448CE
:109FA00003F01CFF0346002B01D0FFF7BFFA4FF46C
:109FB0008053BB6407F1480319462D4804F068F943
:109FC0000346002B01D0FFF7B1FA294803F055FFF3
:109FD0000346002B01D0FFF7A9FA00233B640023BE
:109FE0007B6407F140031946214804F0F7FC03465F
:109FF000002B01D0FFF79AFA60237B624FF4FA73CB
:10A00000BB620023FB6200233B6300237B630023CE
:10A01000BB630023FB6307F12403002219461448A5
:10A0200004F074F80346002B01D0FFF77FFA0023F9
:10A030007B600023BB600023FB6000233B610023A7
:10A040007B614FF40053BB6100233B623B1D19460B
:10A05000074804F031FD0346002B01D0FFF766FAF4
:10A06000034800F095F800BF5837BD4680BD00BFDB
:10A07000100600200000014080B586B000AF07F157
:10A08000080300221A605A609A60DA603B46002298
:10A090001A605A601D4B1E4A1A601C4B47225A60B8
:10A0A0001A4B00229A60194B40F2E732DA60174BE4
:10A0B00000221A61154B00229A61144803F08EFEAB
:10A0C0000346002B01D0FFF731FA4FF48053BB60F9
:10A0D00007F1080319460D4804F0DAF80346002B8F
:10A0E00001D0FFF723FA00233B6000237B603B464F
:10A0F0001946064804F072FC0346002B01D0FFF716
:10A1000015FA00BF1837BD4680BD00BF58060020B5
:10A110000008004080B584B000AF78607B681B68A1
:10A12000184A93420ED10023FB60174B5B6C164A12
:10A1300043F001035364144B5B6C03F00103FB60B9
:10A14000FB681AE07B681B68104A934215D1002314
:10A15000BB600D4B1B6C0C4A43F0040313640A4BA9
:10A160001B6C03F00403BB60BB68002200211E20AF
:10A1700000F027FD1E2000F040FD00BF1037BD4657
:10A1800080BD00BF000001400038024000080040D0
:10A1900080B588B000AF786007F10C0300221A6028
:10A1A0005A609A60DA601A617B681B68124A9342AF
:10A1B0001ED10023BB60114B1B6B104A43F00103FF
:10A1C00013630E4B1B6B03F00103BB60BB684FF4C2
:10A1D0008073FB6002233B6100237B610023BB6132
:10A1E0000123FB6107F10C031946054801F00AF849
:10A1F00000BF2037BD4680BD00000140003802404E
:10A200000000024080B500AF114B124A1A60104B9B
:10A210004FF4E1325A600E4B00229A600C4B002240
:10A22000DA600B4B00221A61094B0C225A61084B71
:10A230004FF440729A61064B0022DA61044804F040
:10A24000A1FC0346002B01D0FFF770F900BF80BDD1
:10A25000A00600200044004080B500AF114B124A18
:10A260001A60104B4FF4E1325A600E4B00229A6094
:10A270000C4B0022DA600B4B00221A61094B0C22B6
:10A280005A61084B00229A61064B0022DA610548A8
:10A2900004F078FC0346002B01D0FFF747F900BF1C
:10A2A00080BD00BFE80600200014014080B58CB0DE
:10A2B00000AF786007F11C0300221A605A609A60B0
:10A2C000DA601A617B681B68324A93422CD1002302
:10A2D000BB61314B1B6C304A43F4003313642E4B8B
:10A2E0001B6C03F40033BB61BB6900237B612A4B09
:10A2F0001B6B294A43F008031363274B1B6B03F0C6
:10A3000008037B617B697823FB6102233B620023A6
:10A310007B620323BB620723FB6207F11C03194620
:10A320001E4800F06FFF30E07B681B681C4A9342B8
:10A330002BD100233B61184B5B6C174A43F0200381
:10A340005364154B5B6C03F020033B613B690023B6
:10A35000FB60114B1B6B104A43F0040313630E4B5D
:10A360001B6B03F00403FB60FB68C023FB6102234B
:10A370003B6200237B620323BB620823FB6207F17D
:10A380001C031946074800F03DFF00BF3037BD46AB
:10A3900080BD00BF0044004000380240000C024075
:10A3A0000014014000080240DFF834D0FFF7B0FD90
:10A3B0000C480D490D4A002302E0D458C450043320
:10A3C000C4188C42F9D30A4A0A4C002301E01360F6
:10A3D0000432A242FBD309F05FFBFEF7C5FF7047D2
:10A3E0000000022000000020EC020020846601082A
:10A3F000EC02002058120020FEE7000080B500AFFC
:10A400000E4B1B680D4A43F4007313600B4B1B6823
:10A410000A4A43F480631360084B1B68074A43F4FD
:10A4200080731360032000F0C1FB002000F008F8E7
:10A43000FFF74EFC0023184680BD00BF003C0240E1
:10A4400080B582B000AF7860124B1A68124B1B784F
:10A4500019464FF47A73B3FBF1F3B2FBF3F31846EA
:10A4600000F0D9FB0346002B01D001230EE07B68EE
:10A470000F2B0AD8002279684FF0FF3000F0A1FBC3
:10A48000064A7B681360002300E001231846083762
:10A49000BD4680BD08000020100000200C000020F8
:10A4A00080B400AF064B1B781A46064B1B6813445A
:10A4B000044A136000BFBD465DF8047B704700BFCF
:10A4C000100000203007002080B400AF034B1B6851
:10A4D0001846BD465DF8047B704700BF300700207A
:10A4E00080B584B000AF7860FFF7EEFFB8607B689E
:10A4F000FB60FB68B3F1FF3F05D00A4B1B781A469F
:10A50000FB681344FB6000BFFFF7DEFF0246BB6839
:10A51000D31AFA689A42F7D800BF00BF1037BD4679
:10A5200080BD00BF1000002080B584B000AF78600F
:10A530000023FB737B68002B01D1012333E07B6890
:10A540001B6C002B09D17868FEF71EFD7B6800228A
:10A550005A647B68002283F83C207B681B6C03F004
:10A560001003002B18D17B681B6C23F4885323F055
:10A57000020343F002027B681A64786800F04AF92B
:10A580007B6800225A647B681B6C23F0030343F052
:10A5900001027B681A6401E00123FB737B680022DF
:10A5A00083F83C20FB7B18461037BD4680BD000079
:10A5B00080B485B000AF786039600023BB607B68F1
:10A5C00093F83C30012B01D1022313E17B68012277
:10A5D00083F83C203B681B68092B25D97B681B68E6
:10A5E000D9683B681B689BB21A4613465B0013444C
:10A5F0001E3B072202FA03F3DA437B681B680A401A
:10A60000DA607B681B68D9683B689A683B681B689E
:10A610009BB2184603465B0003441E3B9A407B688E
:10A620001B680A43DA6022E07B681B6819693B6893
:10A630001B689BB21A4613465B001344072202FABA
:10A6400003F3DA437B681B680A401A617B681B6866
:10A6500019693B689A683B681B689BB218460346B9
:10A660005B0003449A407B681B680A431A613B689D
:10A670005B68062B24D87B681B68596B3B685A685B
:10A6800013469B001344053B1F2202FA03F3DA43EF
:10A690007B681B680A405A637B681B68596B3B6880
:10A6A0001B689BB218463B685A6813469B001344CC
:10A6B000053B00FA03F27B681B680A435A634CE0CF
:10A6C0003B685B680C2B24D87B681B68196B3B6864
:10A6D0005A6813469B001344233B1F2202FA03F3DC
:10A6E000DA437B681B680A401A637B681B68196B36
:10A6F0003B681B689BB218463B685A6813469B0030
:10A700001344233B00FA03F27B681B680A431A6375
:10A7100023E07B681B68D96A3B685A6813469B0034
:10A720001344413B1F2202FA03F3DA437B681B68A0
:10A730000A40DA627B681B68D96A3B681B689BB277
:10A7400018463B685A6813469B001344413B00FA85
:10A7500003F27B681B680A43DA62294BFB607B6863
:10A760001B68284A93420FD13B681B68122B0BD100
:10A77000FB685B6823F40002FB685A60FB685B6857
:10A7800043F48002FB685A607B681B681D4A934251
:10A790002BD13B681B681C4A934203D03B681B6863
:10A7A000112B22D1FB685B6823F48002FB685A609E
:10A7B000FB685B6843F40002FB685A603B681B68F7
:10A7C000114A934211D1114B1B68114AA2FB03237A
:10A7D0009A0C13469B0013445B00BB6002E0BB680D
:10A7E000013BBB60BB68002BF9D17B68002283F87A
:10A7F0003C20002318461437BD465DF8047B7047A3
:10A800000023014000200140120000100800002039
:10A8100083DE1B4380B485B000AF7860794BFB606A
:10A82000FB685B6823F44032FB685A60FB685A6837
:10A830007B685B681A43FB685A607B681B685A68D0
:10A840007B681B6822F480725A607B681B685968B9
:10A850007B681B691A027B681B680A435A607B6825
:10A860001B685A687B681B6822F040725A607B68DC
:10A870001B6859687B689A687B681B680A435A6042
:10A880007B681B689A687B681B6822F400629A6088
:10A890007B681B6899687B68DA687B681B680A4379
:10A8A0009A607B689B6A584A934222D07B681B68F7
:10A8B0009A687B681B6822F070629A607B681B68EC
:10A8C00099687B689A6A7B681B680A439A607B6810
:10A8D0001B689A687B681B6822F040529A607B680C
:10A8E0001B6899687B68DA6A7B681B680A439A6010
:10A8F0000FE07B681B689A687B681B6822F07062B7
:10A900009A607B681B689A687B681B6822F04052DB
:10A910009A607B681B689A687B681B6822F0020259
:10A920009A607B681B6899687B681B7E5A007B680D
:10A930001B680A439A607B6893F82030002B1BD079
:10A940007B681B685A687B681B6842F400625A6027
:10A950007B681B685A687B681B6822F460425A60F7
:10A960007B681B6859687B685B6A013B5A037B689C
:10A970001B680A435A6007E07B681B685A687B685B
:10A980001B6822F400625A607B681B68DA6A7B6885
:10A990001B6822F47002DA627B681B68D96A7B68E4
:10A9A000DB69013B1A057B681B680A43DA627B6836
:10A9B0001B689A687B681B6822F400729A607B6847
:10A9C0001B6899687B6893F830305A027B681B6873
:10A9D0000A439A607B681B689A687B681B6822F44C
:10A9E00080629A607B681B6899687B685B699A02E1
:10A9F0007B681B680A439A6000BF1437BD465DF848
:10AA0000047B7047002301400100000F80B485B033
:10AA100000AF78607B6803F00703FB600C4BDB68DA
:10AA2000BB60BA684FF6FF031340BB60FB681A02B5
:10AA3000BB68134343F0BF6343F40033BB60044A75
:10AA4000BB68D36000BF1437BD465DF8047B704718
:10AA500000ED00E080B400AF044BDB681B0A03F09C
:10AA600007031846BD465DF8047B704700ED00E023
:10AA700080B483B000AF0346FB7197F90730002B19
:10AA80000BDBFB7903F01F02074997F907305B09DD
:10AA9000012000FA02F241F8232000BF0C37BD4626
:10AAA0005DF8047B704700BF00E100E080B483B034
:10AAB00000AF03463960FB7197F90730002B0ADBC2
:10AAC0003B68DAB20C4997F907301201D2B20B4455
:10AAD00083F800230AE03B68DAB20849FB7903F007
:10AAE0000F03043B1201D2B20B441A7600BF0C379D
:10AAF000BD465DF8047B704700E100E000ED00E03A
:10AB000080B489B000AFF860B9607A60FB6803F088
:10AB10000703FB61FB69C3F10703042B28BF042370
:10AB2000BB61FB690433062B02D9FB69033B00E0E0
:10AB300000237B614FF0FF32BB6902FA03F3DA4373
:10AB4000BB681A407B699A404FF0FF317B6901FA7C
:10AB500003F3D9437B680B40134318462437BD46A3
:10AB60005DF8047B7047000080B582B000AF78606C
:10AB70007B68013BB3F1807F01D301230FE00A4AD8
:10AB80007B68013B53600F214FF0FF30FFF78EFFD2
:10AB9000054B00229A60044B07221A6000231846D6
:10ABA0000837BD4680BD00BF10E000E080B582B030
:10ABB00000AF78607868FFF729FF00BF0837BD460F
:10ABC00080BD80B586B000AF0346B9607A60FB7384
:10ABD00000237B61FFF73EFF78617A68B968786986
:10ABE000FFF78EFF024697F90F3011461846FFF720
:10ABF0005DFF00BF1837BD4680BD80B582B000AF95
:10AC00000346FB7197F907301846FFF731FF00BF85
:10AC10000837BD4680BD80B582B000AF78607868E7
:10AC2000FFF7A2FF034618460837BD4680BD000067
:10AC300080B586B000AF786000237B61FFF744FCED
:10AC400038617B68002B01D1012399E07B680222E7
:10AC500083F835207B68002283F834207B681B68EA
:10AC60001A687B681B6822F001021A600FE0FFF788
:10AC70002BFC02463B69D31A052B08D97B6820229E
:10AC80005A657B68032283F83520032378E07B68CC
:10AC90001B681B6803F00103002BE8D17B681B686D
:10ACA0001B687B617A69384B13407B617B685A680B
:10ACB0007B689B681A437B68DB681A437B681B6967
:10ACC0001A437B685B691A437B689B691A437B68FC
:10ACD000DB691A437B681B6A13437A6913437B6100
:10ACE0007B685B6A042B07D17B68DA6A7B681B6B25
:10ACF00013437A6913437B617B681B687A691A6026
:10AD00007B681B685B697B617B6923F007037B6160
:10AD10007B685B6A7A6913437B617B685B6A042B9F
:10AD200017D17B689B6A7A6913437B617B68DB6A16
:10AD3000002B0ED0786800F0E9F90346002B08D00C
:10AD40007B6840225A657B68012283F83520012305
:10AD500016E07B681B687A695A61786800F0A0F990
:10AD60000346FB607B68DB6D3F229A40FB689A607C
:10AD70007B6800225A657B68012283F83520002316
:10AD800018461837BD4680BD3F8010F080B586B0AC
:10AD900000AF78600023BB608E4B1B688E4AA2FB1D
:10ADA00003239B0A7B617B689B6D3B613B691B684E
:10ADB000FB607B68DB6D08229A40FB681340002B28
:10ADC0001AD07B681B681B6803F00403002B13D0A8
:10ADD0007B681B681A687B681B6822F004021A6093
:10ADE0007B68DB6D08229A403B699A607B685B6DEB
:10ADF00043F001027B685A657B68DB6D01229A4053
:10AE0000FB681340002B12D07B681B685B6903F062
:10AE10008003002B0BD07B68DB6D01229A403B69DD
:10AE20009A607B685B6D43F002027B685A657B68C1
:10AE3000DB6D04229A40FB681340002B12D07B6824
:10AE40001B681B6803F00203002B0BD07B68DB6DD3
:10AE500004229A403B699A607B685B6D43F0040270
:10AE60007B685A657B68DB6D10229A40FB68134053
:10AE7000002B43D07B681B681B6803F00803002B82
:10AE80003CD07B68DB6D10229A403B699A607B68FE
:10AE90001B681B6803F48023002B18D07B681B6899
:10AEA0001B6803F40023002B08D17B681B6C002B6C
:10AEB00024D07B681B6C786898471FE07B689B6C8C
:10AEC000002B1BD07B689B6C7868984716E07B68EA
:10AED0001B681B6803F48073002B07D17B681B6819
:10AEE0001A687B681B6822F008021A607B681B6C7A
:10AEF000002B03D07B681B6C786898477B68DB6D00
:10AF000020229A40FB681340002B00F08F807B6862
:10AF10001B681B6803F01003002B00F087807B6820
:10AF2000DB6D20229A403B699A607B6893F835304C
:10AF3000DBB2052B36D17B681B681A687B681B68FF
:10AF400022F016021A607B681B685A697B681B68CE
:10AF500022F080025A617B681B6C002B03D17B6856
:10AF60009B6C002B07D07B681B681A687B681B688A
:10AF700022F008021A607B68DB6D3F229A403B6931
:10AF80009A607B68012283F835207B68002283F871
:10AF900034207B681B6D002B7ED07B681B6D78682E
:10AFA000984779E07B681B681B6803F48023002BBB
:10AFB0001DD07B681B681B6803F40023002B0DD198
:10AFC0007B685B6C002B31D07B685B6C7868984742
:10AFD0002CE000BF08000020B5814E1B7B68DB6BB6
:10AFE000002B23D07B68DB6B786898471EE07B687A
:10AFF0001B681B6803F48073002B0FD17B681B68F0
:10B000001A687B681B6822F010021A607B680122B4
:10B0100083F835207B68002283F834207B68DB6B63
:10B02000002B03D07B68DB6B786898477B685B6D8F
:10B03000002B32D07B685B6D03F00103002B22D024
:10B040007B68052283F835207B681B681A687B685B
:10B050001B6822F001021A60BB680133BB607A6989
:10B060009A4207D37B681B681B6803F00103002B1F
:10B07000F2D100E000BF7B68012283F835207B68B5
:10B08000002283F834207B68DB6C002B05D07B68C2
:10B09000DB6C7868984700E000BF1837BD4680BD7C
:10B0A00080B485B000AF78607B681B68DBB2103B72
:10B0B000144AA2FB03231B09FB60134AFB681344D9
:10B0C0001B781A467B68DA65FB68032B09D97B6815
:10B0D0001B6823F47F7323F003031A1D7B689A65B2
:10B0E00007E07B681B6823F47F7323F003037A680F
:10B0F00093657B689B6D18461437BD465DF8047BED
:10B10000704700BFABAAAAAAF862010880B485B054
:10B1100000AF78600023FB737B689B6ABB607B6831
:10B120009B69002B1FD1BB68032B56D801A252F894
:10B1300023F000BF45B1000857B1000845B1000831
:10B14000DBB100087B68DB6A03F08073002B46D01C
:10B150000123FB7343E07B68DB6AB3F1C07F40D11E
:10B160000123FB733DE07B689B69B3F5005F21D150
:10B17000BB68032B37D801A252F823F08DB1000829
:10B1800093B100088DB10008A5B100080123FB733D
:10B1900030E07B68DB6A03F08073002B25D001234D
:10B1A000FB7322E07B68DB6AB3F1C07F1FD1012310
:10B1B000FB731CE0BB68022B03D9BB68032B03D0D5
:10B1C00018E00123FB7315E07B68DB6A03F08073F2
:10B1D000002B0ED00123FB730BE000BF0AE000BF81
:10B1E00008E000BF06E000BF04E000BF02E000BFCF
:10B1F00000E000BFFB7B18461437BD465DF8047BBA
:10B20000704700BF80B489B000AF78603960002318
:10B210007B6100233B610023BB610023FB6159E19B
:10B220000122FB6902FA03F37B613B681B687A69C0
:10B2300013403B613A697B699A4240F048813B6820
:10B240005B6803F00303012B05D03B685B6803F0E8
:10B250000303022B30D17B689B68BB61FB695B00F9
:10B26000032202FA03F3DB43BA691340BB613B6874
:10B27000DA68FB695B0002FA03F3BA691343BB6146
:10B280007B68BA699A607B685B68BB610122FB6975
:10B2900002FA03F3DB43BA691340BB613B685B68A6
:10B2A0001B0903F00102FB6902FA03F3BA691343B5
:10B2B000BB617B68BA695A603B685B6803F0030353
:10B2C000032B17D07B68DB68BB61FB695B00032243
:10B2D00002FA03F3DB43BA691340BB613B689A6827
:10B2E000FB695B0002FA03F3BA691343BB617B6835
:10B2F000BA69DA603B685B6803F00303022B23D171
:10B30000FB69DA087B68083253F82230BB61FB69BD
:10B3100003F007039B000F2202FA03F3DB43BA6931
:10B320001340BB613B681A69FB6903F007039B008C
:10B3300002FA03F3BA691343BB61FB69DA087B685D
:10B340000832B96943F822107B681B68BB61FB694E
:10B350005B00032202FA03F3DB43BA691340BB61CB
:10B360003B685B6803F00302FB695B0002FA03F3CE
:10B37000BA691343BB617B68BA691A603B685B6852
:10B3800003F44033002B00F0A2800023FB60574BF6
:10B390005B6C564A43F480435364544B5B6C03F438
:10B3A0008043FB60FB68524AFB699B08023352F8FA
:10B3B0002330BB61FB6903F003039B000F2202FAF9
:10B3C00003F3DB43BA691340BB617B68494A93428C
:10B3D00019D07B68484A934213D07B68474A93420E
:10B3E0000DD07B68464A934207D07B68454A93421A
:10B3F00001D1042308E0072306E0032304E002232D
:10B4000002E0012300E00023FA6902F00302920047
:10B410009340BA691343BB613549FB699B0802330A
:10B42000BA6941F82320384B9B68BB613B69DB4319
:10B43000BA691340BB613B685B6803F48013002B5F
:10B4400003D0BA693B691343BB612F4ABB69936060
:10B450002D4BDB68BB613B69DB43BA691340BB61C1
:10B460003B685B6803F40013002B03D0BA693B69A7
:10B470001343BB61244ABB69D360234B5B68BB6148
:10B480003B69DB43BA691340BB613B685B6803F40B
:10B490000033002B03D0BA693B691343BB611A4ADE
:10B4A000BB695360184B1B68BB613B69DB43BA69DE
:10B4B0001340BB613B685B6803F48033002B03D00F
:10B4C000BA693B691343BB610F4ABB691360FB69EF
:10B4D0000133FB61FB690F2B7FF6A2AE00BF00BFFB
:10B4E0002437BD465DF8047B704700BF003802403A
:10B4F0000038014000000240000402400008024001
:10B50000000C024000100240003C014080B483B0B7
:10B5100000AF78600B467B8013467B707B78002BF6
:10B5200003D07A887B689A6103E07B881A047B6881
:10B530009A6100BF0C37BD465DF8047B7047000080
:10B5400080B584B000AF78607B68002B01D1012307
:10B550002BE17B6893F83D30DBB2002B06D17B6892
:10B56000002283F83C207868FDF7A2FE7B68242245
:10B5700083F83D207B681B681A687B681B6822F093
:10B5800001021A607B681B681A687B681B6842F4BA
:10B5900000421A607B681B681A687B681B6822F48B
:10B5A00000421A6002F024FBF8607B685B68814A05
:10B5B000934207D8FB68804A934294BF012300233B
:10B5C000DBB206E0FB687D4A934294BF012300236F
:10B5D000DBB2002B01D00123E7E0FB68784AA2FB35
:10B5E00003239B0CBB607B681B685B6823F03F01F7
:10B5F0007B681B68BA680A435A607B681B681B6AD1
:10B6000023F03F017B685B686A4A934202D8BB68BB
:10B61000013309E0BB684FF4967202FB03F3694AF9
:10B62000A2FB03239B0901337A6812680B43136260
:10B630007B681B68DB6923F44F4222F0FF027B68C2
:10B640005B685C498B4219D8FB68591E7B685B6854
:10B650005B00B1FBF3F3591C40F6FC730B40002B6D
:10B660000AD0FB68591E7B685B685B00B1FBF3F393
:10B670000133C3F30B0351E004234FE07B689B6865
:10B68000002B11D1FB68581E7B6859680B465B0084
:10B690000B44B0FBF3F30133C3F30B03002B0CBFDC
:10B6A00001230023DBB212E0FB68581E7B68596857
:10B6B0000B469B000B4499000B44B0FBF3F30133A2
:10B6C000C3F30B03002B0CBF01230023DBB2002BC1
:10B6D00001D0012322E07B689B68002B0ED1FB6820
:10B6E000581E7B6859680B465B000B44B0FBF3F3B4
:10B6F0000133C3F30B0343F400430FE0FB68581E10
:10B700007B6859680B469B000B4499000B44B0FBC7
:10B71000F3F30133C3F30B0343F44043796809683F
:10B720001343CB617B681B681B6823F0C0017B68F7
:10B73000DA697B681B6A1A437B681B680A431A60D4
:10B740007B681B689B6823F4034323F0FF037A683C
:10B7500011697A68D26811437A6812680B43936062
:10B760007B681B68DB6823F0FF017B685A697B6894
:10B770009B691A437B681B680A43DA607B681B6815
:10B780001A687B681B6842F001021A607B6800221D
:10B790001A647B68202283F83D207B6800221A63AC
:10B7A0007B68002283F83E20002318461037BD46F0
:10B7B00080BD00BFA08601007F841E00FF083D0001
:10B7C00083DE1B43D34D621080B588B002AFF860B2
:10B7D000084611461A4603467B810B463B811346B9
:10B7E000FB80FEF771FE7861FB6893F83D30DBB2B9
:10B7F000202B40F0D9807B690093192301226D49E9
:10B80000F86800F071F90346002B01D00223CCE068
:10B81000FB6893F83C30012B01D10223C5E0FB68A3
:10B82000012283F83C20FB681B681B6803F00103BE
:10B83000012B07D0FB681B681A68FB681B6842F085
:10B8400001021A60FB681B681A68FB681B6822F417
:10B8500000621A60FB68212283F83D20FB684022C9
:10B8600083F83E20FB6800221A64FB683A6A5A6239
:10B87000FB68BA8C5A85FB685B8D9AB2FB681A85A7
:10B88000FB684D4ADA62F8883A8979897B690193C5
:10B89000BB6A00930346F86800F090F80346002B5B
:10B8A00052D0012381E07A69B96AF86800F036FA6B
:10B8B0000346002B0DD0FB681B6C042B07D1FB68E3
:10B8C0001B681A68FB681B6842F400721A60012347
:10B8D0006BE0FB685B6A1A78FB681B681A61FB689F
:10B8E0005B6A5A1CFB685A62FB681B8D013B9AB26B
:10B8F000FB681A85FB685B8D9BB2013B9AB2FB68C3
:10B900005A85FB681B685B6903F00403042B1BD199
:10B91000FB681B8D002B17D0FB685B6A1A78FB68ED
:10B920001B681A61FB685B6A5A1CFB685A62FB68F9
:10B930001B8D013B9AB2FB681A85FB685B8D9BB23D
:10B94000013B9AB2FB685A85FB681B8D002BAAD17C
:10B950007A69B96AF86800F029FA0346002B0DD01D
:10B96000FB681B6C042B07D1FB681B681A68FB681B
:10B970001B6842F400721A60012316E0FB681B6822
:10B980001A68FB681B6842F400721A60FB68202288
:10B9900083F83D20FB68002283F83E20FB680022EC
:10B9A00083F83C20002300E0022318461837BD46E8
:10B9B00080BD00BF020010000000FFFF80B588B00E
:10B9C00002AFF860084611461A4603467B810B46D3
:10B9D0003B811346FB80FB681B681A68FB681B6889
:10B9E00042F480721A607B6A00933B6A00224FF037
:10B9F0000111F86800F078F80346002B0DD0FB68C1
:10BA00001B681B6803F48073B3F5807F03D1FB6868
:10BA10004FF400721A6403235FE07B89DBB21A469D
:10BA2000FB681B6802F0FE021A617B6A3A6A2D49C4
:10BA3000F86800F0D3F80346002B01D001234CE056
:10BA400000237B61FB681B685B697B61FB681B688B
:10BA50009B697B617B697A6A396AF86800F05EF9F4
:10BA60000346002B0DD0FB681B6C042B07D1FB6831
:10BA70001B681A68FB681B6842F400721A60012395
:10BA80002BE0FB88012B05D13B89DAB2FB681B68F0
:10BA90001A6121E03B891B0A9BB2DAB2FB681B6882
:10BAA0001A617A6A396AF86800F038F90346002B9F
:10BAB0000DD0FB681B6C042B07D1FB681B681A6850
:10BAC000FB681B6842F400721A60012305E03B89A1
:10BAD000DAB2FB681B681A61002318461837BD46A6
:10BAE00080BD00BF0200010080B584B000AFF860E7
:10BAF000B9603B601346FB7148E03B68B3F1FF3F20
:10BB000044D0FEF7E1FC0246BB69D31A3A689A4278
:10BB100002D33B68002B39D1BB681B0CDBB2012B75
:10BB20000DD1FB681B685B69DA43BB6813409BB2AD
:10BB3000002B0CBF01230023DBB21A460CE0FB688C
:10BB40001B689B69DA43BB6813409BB2002B0CBF98
:10BB500001230023DBB21A46FB799A4216D1FB6817
:10BB600000221A63FB68202283F83D20FB68002234
:10BB700083F83E20FB681B6C43F02002FB681A64CC
:10BB8000FB68002283F83C20012323E0BB681B0CE8
:10BB9000DBB2012B0DD1FB681B685B69DA43BB6824
:10BBA00013409BB2002B0CBF01230023DBB21A46CB
:10BBB0000CE0FB681B689B69DA43BB6813409BB2CF
:10BBC000002B0CBF01230023DBB21A46FB799A42FB
:10BBD00093D0002318461037BD4680BD80B584B091
:10BBE00000AFF860B9607A603B6071E0FB681B6889
:10BBF0005B6903F48063B3F5806F23D1FB681B6836
:10BC00001A68FB681B6842F400721A60FB681B68C4
:10BC10006FF480625A61FB6800221A63FB6820227D
:10BC200083F83D20FB68002283F83E20FB681B6CF4
:10BC300043F00402FB681A64FB68002283F83C208E
:10BC4000012367E07B68B3F1FF3F41D0FEF73CFC86
:10BC500002463B68D31A7A689A4202D37B68002B6B
:10BC600036D1BB681B0CDBB2012B0CD1FB681B6807
:10BC70005B69DA43BB6813409BB2002B14BF0123FE
:10BC80000023DBB20BE0FB681B689B69DA43BB68EF
:10BC900013409BB2002B14BF01230023DBB2002B07
:10BCA00016D0FB6800221A63FB68202283F83D202F
:10BCB000FB68002283F83E20FB681B6C43F02002E7
:10BCC000FB681A64FB68002283F83C20012321E012
:10BCD000BB681B0CDBB2012B0CD1FB681B685B69DA
:10BCE000DA43BB6813409BB2002B14BF012300232F
:10BCF000DBB20BE0FB681B689B69DA43BB6813404F
:10BD00009BB2002B14BF01230023DBB2002B7FF476
:10BD10006DAF002318461037BD4680BD80B584B096
:10BD200000AFF860B9607A6034E0F86800F086F837
:10BD30000346002B01D0012334E0BB68B3F1FF3F81
:10BD400028D0FEF7C1FB02467B68D31ABA689A4234
:10BD500002D3BB68002B1DD1FB681B685B6903F035
:10BD60008003802B16D0FB6800221A63FB68202218
:10BD700083F83D20FB68002283F83E20FB681B6CA3
:10BD800043F02002FB681A64FB68002283F83C2021
:10BD9000012307E0FB681B685B6903F08003802BCD
:10BDA000C3D1002318461037BD4680BD80B584B08E
:10BDB00000AFF860B9607A6034E0F86800F03EF8EF
:10BDC0000346002B01D0012334E0BB68B3F1FF3FF1
:10BDD00028D0FEF779FB02467B68D31ABA689A42EC
:10BDE00002D3BB68002B1DD1FB681B685B6903F0A5
:10BDF0000403042B16D0FB6800221A63FB68202280
:10BE000083F83D20FB68002283F83E20FB681B6C12
:10BE100043F02002FB681A64FB68002283F83C2090
:10BE2000012307E0FB681B685B6903F00403042B34
:10BE3000C3D1002318461037BD4680BD80B483B0FF
:10BE400000AF78607B681B685B6903F48063B3F5BF
:10BE5000806F1BD17B681B686FF480625A617B68BE
:10BE600000221A637B68202283F83D207B68002231
:10BE700083F83E207B681B6C43F004027B681A64E5
:10BE80007B68002283F83C20012300E00023184651
:10BE90000C37BD465DF8047B704780B586B002AFB5
:10BEA00078607B68002B01D1012301E17B681B686E
:10BEB000BB607B6893F89534DBB2002B06D17B68BE
:10BEC000002283F89424786806F014FC7B6803222F
:10BED00083F89524BB68B3F1A04F02D17B680022A0
:10BEE0009A717B681B68184603F06FFB7B681868C3
:10BEF0007B681A7C8DF8002004330ECB03F04EFAD9
:10BF00000346002B05D07B68022283F89524012389
:10BF1000CEE07B681B680021184603F067FB0346F0
:10BF2000002B05D07B68022283F895240123BFE013
:10BF30000023FB734AE0FA7B79681346DB00134465
:10BF40009B000B44153301221A70FA7B7968134663
:10BF5000DB0013449B000B441433FA7B1A70FA7B0A
:10BF6000FB7B98B279681346DB0013449B000B44BB
:10BF70002E3302461A80FA7B79681346DB0013449D
:10BF80009B000B44183300221A70FA7B7968134621
:10BF9000DB0013449B000B441C3300221A60FA7B25
:10BFA00079681346DB0013449B000B4420330022C6
:10BFB0001A60FA7B79681346DB0013449B000B443C
:10BFC000243300221A60FB7B0133FB737B681B79EF
:10BFD000FA7B9A42AFD30023FB7344E0FA7B796883
:10BFE0001346DB0013449B000B4403F2552300224D
:10BFF0001A70FA7B79681346DB0013449B000B44EC
:10C0000003F51573FA7B1A70FA7B79681346DB0027
:10C0100013449B000B4403F5167300221A70FA7B3D
:10C0200079681346DB0013449B000B4403F5177338
:10C0300000221A60FA7B79681346DB0013449B00E8
:10C040000B4403F5187300221A60FA7B79681346D3
:10C05000DB0013449B000B4403F5197300221A60A4
:10C06000FB7B0133FB737B681B79FA7B9A42B5D368
:10C070007B6818687B681A7C8DF8002004330ECB2F
:10C0800003F000FB0346002B05D07B68022283F8F7
:10C09000952401230CE07B6800225A747B680122FE
:10C0A00083F895247B681B68184604F04AFB00233C
:10C0B00018461037BD4680BD80B584B000AF7860AB
:10C0C0007B681B68FB607B6893F89434012B01D17B
:10C0D000022322E07B68012283F89424FB68DB685A
:10C0E00003F04003002B09D07B685B7B012B05D15B
:10C0F000FB689B6B43F48032FB689A637B681B6828
:10C10000184603F051FA7B681B68184604F0F8FAE9
:10C110007B68002283F89424002318461037BD461C
:10C1200080BD90B58DB000AF78607B681B683B62C6
:10C130003B6AFB617B681B68184604F0B6FB03464C
:10C14000002B40F08C847B681B68184604F01AFBB7
:10C150000346002B00F08284FB6903F500639B68B3
:10C160001B0AC3F30D027B68C3F8D4247B681B68E9
:10C17000184604F007FB034603F00203022B07D125
:10C180007B681B685A697B681B6802F002025A616F
:10C190007B681B68184604F0F5FA034603F01003A9
:10C1A000102B61D17B681B689A697B681B6822F041
:10C1B00010029A613B6A1B6ABB61BB6903F00F0204
:10C1C0001346DB0013449B0003F514737A68134491
:10C1D00004337B61BB6903F4F013B3F5802F24D1E2
:10C1E000BA6947F6F0731340002B35D07B69D968E4
:10C1F000BB691B099BB2C3F30A039BB21A46386A98
:10C2000004F02CF97B69DA68BB691B09C3F30A03E4
:10C210001A447B69DA607B695A69BB691B09C3F3FD
:10C220000A031A447B695A6116E0BB6903F4F013F0
:10C23000B3F5402F10D17B6803F29C4308221946C6
:10C24000386A04F00BF97B695A69BB691B09C3F3AF
:10C250000A031A447B695A617B681B689A697B6888
:10C260001B6842F010029A617B681B68184604F054
:10C2700089FA034603F40023B3F5002F40F0A780AA
:10C2800000237B627B681B68184604F08EFAB86254
:10C2900099E0BB6A03F00103002B00F08E807B68FD
:10C2A0001B687A6AD2B21146184604F0B2FA3861B5
:10C2B0003B6903F00103002B0CD07B6A5A01FB6938
:10C2C000134403F530631A4601239360796A786852
:10C2D00000F08CFE3B6903F00803002B0CD07B6A56
:10C2E0005A01FB69134403F530631A46082393602F
:10C2F000796A786800F062FF3B6903F01003002B55
:10C3000008D07B6A5A01FB69134403F530631A466F
:10C31000102393603B6903F00203002B30D03B6A8B
:10C320005B6903F08003802B09D1FB6903F500638F
:10C330005B68FA6902F5006243F4806353607A6ACD
:10C340001346DB0013449B0003F514737A6813440F
:10C3500004337B617B69DB78012B08D17B69002288
:10C36000DA707B6ADBB21946786806F0BFFA7B6A3E
:10C370005A01FB69134403F530631A4602239360A4
:10C380003B6903F02003002B08D07B6A5A01FB694C
:10C39000134403F530631A46202393603B6903F48A
:10C3A0000053002B09D07B6A5A01FB69134403F543
:10C3B00030631A464FF4005393607B6A01337B620B
:10C3C000BB6A5B08BB62BB6A002B7FF462AF7B6811
:10C3D0001B68184604F0D6F9034603F48023B3F52E
:10C3E000802F40F0DB807B681B68184604F0F7F96B
:10C3F000B86200237B62CDE0BB6A03F00103002B2F
:10C4000000F0C2807B681B687A6AD2B21146184677
:10C4100004F01DFA38613B6903F00103002B57D08B
:10C420007B6A03F00F03012202FA03F3FB60FB694E
:10C4300003F500635A6BFB68DB43F96901F50061A2
:10C4400013404B637B6A5A01FB69134403F5106385
:10C450001A46012393607B689B79012B32D179685E
:10C460007A6A1346DB0013449B000B44203319689F
:10C4700078687A6A1346DB0013449B0003441C333C
:10C480001B68194478687A6A1346DB0013449B00E2
:10C490000344203319607B6A002B13D179687A6AD0
:10C4A0001346DB0013449B000B4424331B68002B12
:10C4B00008D17B6818687B6803F29C431A46012107
:10C4C00004F024FA7B6ADBB21946786806F093F927
:10C4D0003B6903F00803002B08D07B6A5A01FB6913
:10C4E000134403F510631A46082393603B6903F075
:10C4F0001003002B08D07B6A5A01FB69134403F533
:10C5000010631A46102393603B6903F04003002B2D
:10C5100008D07B6A5A01FB69134403F510631A467D
:10C52000402393603B6903F00203002B23D0796A18
:10C53000386A03F00BFA7A6A1346DB0013449B0057
:10C5400010337A68134404337B617B69DB78012BF9
:10C5500008D17B690022DA707B6ADBB21946786801
:10C5600006F0D6F97B6A5A01FB69134403F51063A0
:10C570001A46022393603B6903F08003002B03D02B
:10C58000796A786800F0A5FC7B6A01337B62BB6A3C
:10C590005B08BB62BB6A002B7FF42EAF7B681B6815
:10C5A000184604F0EFF8034603F00043B3F1004FE0
:10C5B00022D1FB6903F500635B68FA6902F500624A
:10C5C00023F0010353607B6893F8CC34012B08D12E
:10C5D0007B68002283F8CC240021786800F08CFE70
:10C5E00002E0786806F074F97B681B685A697B681A
:10C5F0001B6802F000425A617B681B68184604F011
:10C60000C1F8034603F40063B3F5006F12D1FB6970
:10C6100003F500639B6803F00103012B02D17868E6
:10C6200006F030F97B681B685A697B681B6802F466
:10C6300000625A617B681B68184604F0A3F8034641
:10C6400003F48053B3F5805F40F0B780FB6903F5D6
:10C6500000635B68FA6902F5006223F0010353602E
:10C660007B681B681021184603F070F90023FB62F9
:10C6700046E0FB6A5A01FB69134403F510631A464E
:10C680004FF67F339360FB6A5A01FB69134403F54D
:10C6900010631B68FA6A5101FA690A4402F51062D4
:10C6A00023F400131360FB6A5A01FB69134403F57A
:10C6B00030631A464FF67F339360FB6A5A01FB6979
:10C6C000134403F530631B68FA6A5101FA690A449E
:10C6D00002F5306223F400131360FB6A5A01FB6910
:10C6E000134403F530631B68FA6A5101FA690A447E
:10C6F00002F5306243F000631360FB6A0133FB62B2
:10C700007B681B791A46FB6A9342B2D3FB6903F537
:10C710000063DB69FA6902F5006243F00113D3613B
:10C720007B68DB7B002B16D0FB6903F50063D3F835
:10C730008430FA6902F5006243F00B03C2F88430DA
:10C74000FB6903F500635B6CFA6902F5006243F074
:10C750000B03536415E0FB6903F500635B69FA6939
:10C7600002F5006243F4005343F02B035361FB696D
:10C7700003F500631B69FA6902F5006243F00B03DD
:10C780001361FB6903F500631B68FA6902F5006237
:10C7900023F4FE6313607B6818687B6899797B6873
:10C7A00003F29C431A4604F0B1F87B681B685A698F
:10C7B0007B681B6802F480525A617B681B681846CC
:10C7C00003F0E0FF034603F40053B3F5005F23D109
:10C7D0007B681B68184604F076F87B681B6818466F
:10C7E00003F02DF903461A467B68DA717B681C68F2
:10C7F00001F0F2F901467B68DB791A46204602F027
:10C8000031FE786806F01FF87B681B685A697B6800
:10C810001B6802F400525A617B681B68184603F0DB
:10C82000B1FF034603F00803082B0AD1786805F02E
:10C83000FCFF7B681B685A697B681B6802F0080272
:10C840005A617B681B68184603F09CFF034603F09F
:10C850008003802B23D13B6A9B6923F080023B6AD3
:10C860009A6101237B6214E079687A6A1346DB00DF
:10C8700013449B000B4403F257231B78012B05D173
:10C880007B6ADBB21946786800F0F2FA7B6A013302
:10C890007B627B681B791A467B6A9342E4D37B6890
:10C8A0001B68184603F06EFF034603F48013B3F5CC
:10C8B000801F3CD101237B622BE07B6A5A01FB691C
:10C8C000134403F510631B68BB6179687A6A1346E9
:10C8D000DB0013449B000B4418331B78012B15D14C
:10C8E000BB69002B12DA79687A6A1346DB001344BD
:10C8F0009B000B44173301221A707B6ADBB263F092
:10C900007F03DBB21946786800F0B2FA7B6A013324
:10C910007B627B681B791A467B6A9342CDD37B6826
:10C920001B685A697B681B6802F480125A617B6835
:10C930001B68184603F026FF034603F40013B3F503
:10C94000001F56D101237B6245E07B6A5A01FB69D7
:10C95000134403F530631B68BB6179687A6A134638
:10C96000DB0013449B000B4403F516731B78012B6B
:10C970002ED1BB69002B2BDABB691A0C7B68D3F86C
:10C98000D434534003F00103002B21D179687A6A33
:10C990001346DB0013449B000B4403F25723012290
:10C9A0001A703B6A9B6943F080023B6A9A613B6A5A
:10C9B0005B6903F08003002B0AD1FB6903F5006378
:10C9C0005B68FA6902F5006243F40073536008E0A3
:10C9D0007B6A01337B627B681B791A467B6A9342D0
:10C9E000B3D37B681B685A697B681B6802F400122A
:10C9F0005A617B681B68184603F0C4FE034603F0C7
:10CA00008043B3F1804F0AD1786805F093FF7B68CB
:10CA10001B685A697B681B6802F080425A617B6818
:10CA20001B68184603F0AEFE034603F00403042B14
:10CA300015D17B681B685B68BB61BB6903F00403AD
:10CA4000002B02D0786805F083FF7B681B6859686B
:10CA50007B681B68BA690A435A6000E000BF34373C
:10CA6000BD4690BD80B582B000AF78600B46FB70CC
:10CA70007B6893F89434012B01D1022312E07B6888
:10CA8000012283F894247B68FA785A747B681B68C7
:10CA9000FA781146184603F00DFE7B68002283F8F1
:10CAA0009424002318460837BD4680BD80B584B065
:10CAB00000AF7860084611461A460346FB700B46E5
:10CAC0003B801346BB700023FB7297F90330002BA9
:10CAD0000FDAFB7803F00F021346DB0013449B00D0
:10CAE00010337A6813440433FB60FB6801225A70E8
:10CAF0000FE0FB7803F00F021346DB0013449B00AA
:10CB000003F514737A6813440433FB60FB68002256
:10CB10005A70FB7803F00F03DAB2FB681A703B8897
:10CB2000C3F30A02FB689A60FB68BA781A71FB6863
:10CB30005B78002B04D0FB681B781A46FB685A838D
:10CB4000BB78022B02D1FB6800225A717B6893F8F4
:10CB50009434012B01D102230EE07B68012283F87B
:10CB600094247B681B68F968184602F08DFF7B6887
:10CB7000002283F89424FB7A18461037BD4680BD06
:10CB800080B584B000AF78600B46FB7097F9033036
:10CB9000002B0FDAFB7803F00F021346DB0013447F
:10CBA0009B0010337A6813440433FB60FB68012256
:10CBB0005A700FE0FB7803F00F021346DB001344BA
:10CBC0009B0003F514737A6813440433FB60FB681D
:10CBD00000225A70FB7803F00F03DAB2FB681A7078
:10CBE0007B6893F89434012B01D102230EE07B681B
:10CBF000012283F894247B681B68F968184602F0C8
:10CC0000CBFF7B68002283F894240023184610375A
:10CC1000BD4680BD80B586B000AFF8607A603B60ED
:10CC20000B46FB72FB7A03F00F021346DB00134442
:10CC30009B0003F51473FA68134404337B617B692A
:10CC40007A68DA607B693A681A617B6900225A6106
:10CC50007B6900225A70FB7A03F00F03DAB27B691A
:10CC60001A70FB689B79012B02D17A687B69DA61C3
:10CC7000FB681868FB689B791A46796903F068F8C5
:10CC8000002318461837BD4680BD80B586B000AF7A
:10CC9000F8607A603B600B46FB72FB7A03F00F0290
:10CCA0001346DB0013449B001033FA68134404332B
:10CCB0007B617B697A68DA607B693A681A617B69B3
:10CCC00000225A617B6901225A70FB7A03F00F033C
:10CCD000DAB27B691A70FB689B79012B02D17A6802
:10CCE0007B69DA61FB681868FB689B791A46796989
:10CCF00003F02EF8002318461837BD4680BD80B5D6
:10CD000084B000AF78600B46FB70FB7803F00F0334
:10CD10007A681279934201D901234FE097F90330E1
:10CD2000002B0FDAFB7803F00F021346DB001344ED
:10CD30009B0010337A6813440433FB60FB680122C4
:10CD40005A700DE0FA781346DB0013449B0003F59C
:10CD500014737A6813440433FB60FB6800225A7032
:10CD6000FB6801229A70FB7803F00F03DAB2FB68CC
:10CD70001A707B6893F89434012B01D102231DE0D3
:10CD80007B68012283F894247B681B68F968184645
:10CD900003F0BCFBFB7803F00F03002B09D17B6889
:10CDA00018687B6899797B6803F29C431A4603F004
:10CDB000ADFD7B68002283F89424002318461037C9
:10CDC000BD4680BD80B584B000AF78600B46FB7077
:10CDD000FB7803F00F037A681279934201D901239B
:10CDE00042E097F90330002B0FDAFB7803F00F02D3
:10CDF0001346DB0013449B0010337A68134404335A
:10CE0000FB60FB6801225A700FE0FB7803F00F0211
:10CE10001346DB0013449B0003F514737A68134434
:10CE20000433FB60FB6800225A70FB6800229A7092
:10CE3000FB7803F00F03DAB2FB681A707B6893F893
:10CE40009434012B01D102230EE07B68012283F888
:10CE500094247B681B68F968184603F0C5FB7B685F
:10CE6000002283F89424002318461037BD4680BD65
:10CE700080B584B000AF78600B46FB7097F9033043
:10CE8000002B0CDAFB7803F00F021346DB0013448F
:10CE90009B0010337A6813440433FB600CE0FB788A
:10CEA00003F00F021346DB0013449B0003F51473D9
:10CEB0007A6813440433FB607B681B68F968184682
:10CEC00003F0E4F90346FB72FB7A18461037BD46BF
:10CED00080BD80B58AB002AF786039607B681B681E
:10CEE0007B617B693B613A681346DB0013449B001E
:10CEF00010337A6813440433FB60FB685A69FB689B
:10CF00001B699A4201D901236BE0FB681A69FB682F
:10CF10005B69D31AFB61FB689B68FA699A4202D984
:10CF2000FB689B68FB61FB6903339B08BB612AE0DC
:10CF3000FB681A69FB685B69D31AFB61FB689B6835
:10CF4000FA699A4202D9FB689B68FB61FB6903336B
:10CF50009B08BB61FB68D9683B68DAB2FB6998B291
:10CF60007B689B7900930346786903F039FAFB6884
:10CF7000DA68FB691A44FB68DA60FB685A69FB6986
:10CF80001A44FB685A613B685A013B69134403F534
:10CF900010639B699BB2BA699A4209D8FB685A69C7
:10CFA000FB681B699A4203D2FB681B69002BBFD147
:10CFB000FB681A69FB685B699A4211D83B6803F009
:10CFC0000F03012202FA03F3BB603B6903F5006320
:10CFD0005A6BBB68DB43396901F5006113404B6351
:10CFE000002318462037BD4680BD000080B588B0BC
:10CFF00000AF786039607B681B68FB61FB69BB61CF
:10D00000FB693C3304331B687B613B685A01BB6995
:10D01000134403F530639B683B617B689B79012B6C
:10D020007BD13B6903F00803002B15D07B69614A73
:10D03000934240F2B9803B6903F40043002B00F0B7
:10D04000B3803B685A01BB69134403F530631A4649
:10D050004FF400439360A7E03B6903F02003002BEB
:10D0600009D03B685A01BB69134403F530631A4683
:10D070002023936098E03B6903F02803002B40F0E5
:10D0800093807B694B4A93420FD93B6903F4004379
:10D09000002B0AD03B685A01BB69134403F5306387
:10D0A0001A464FF4004393607EE03A681346DB0073
:10D0B00013449B0003F514737A6813440433FB6034
:10D0C000FB681A6A3B685901BB690B4403F530637E
:10D0D0001B69C3F31203D21AFB685A613B68002B29
:10D0E00014D1FB681B69002B09D17B6818687B6829
:10D0F00003F29C431A46012103F008FC06E0FB689A
:10D10000DA68FB685B691A44FB68DA603B68DBB28B
:10D110001946786805F054FB46E07B69264A93423D
:10D1200024D13B6903F40043002B0AD03B685A0129
:10D13000BB69134403F530631A464FF40043936010
:10D1400032E03B6903F02003002B08D03B685A0112
:10D15000BB69134403F530631A46202393603B6890
:10D16000DBB21946786805F02BFB1DE03B68002B0D
:10D1700014D179683A681346DB0013449B000B44D2
:10D1800003F519731B68002B08D17B6818687B684E
:10D1900003F29C431A46002103F0B8FB3B68DBB264
:10D1A0001946786805F00CFB002318462037BD4669
:10D1B00080BD00BF0A30544F0A31544F80B586B04D
:10D1C00000AF786039607B681B687B617B693B617D
:10D1D0007B693C3304331B68FB603B685A013B6945
:10D1E000134403F530639B68BB60FB68154A9342A8
:10D1F0000ED9BB6803F40043002B09D03B685A01E9
:10D200003B69134403F530631A464FF400439360BF
:10D21000786805F0C3FAFB680A4A93420CD97B6828
:10D220009B79012B08D17B6818687B6803F29C43CB
:10D230001A46012103F06AFB002318461837BD4641
:10D2400080BD00BF0A30544F80B485B000AF786015
:10D250000B46FB7013463B807B681B685B6ABB60B8
:10D26000FB78002B07D13B8819047B681B68BA68E0
:10D270000A439A6228E07B681B689B6A1B0CBA68A9
:10D280001344BB600023FB730DE07B681A68FB7BD3
:10D2900040339B0013445B681B0CBA681344BB60AB
:10D2A000FB7B0133FB73FA7BFB78013B9A42ECD3A7
:10D2B0003B8818047B681968FB78013BBA68024315
:10D2C00040339B000B445A60002318461437BD4678
:10D2D0005DF8047B704780B483B000AF78600B4684
:10D2E0007B807B681B687A885A62002318460C375B
:10D2F000BD465DF8047B704780B483B000AF7860B2
:10D300000B46FB7000BF0C37BD465DF8047B7047D1
:10D3100080B586B000AF78607B68002B01D1012317
:10D3200067E27B681B6803F00103002B75D0884B14
:10D330009B6803F00C03042B0CD0854B9B6803F017
:10D340000C03082B12D1824B5B6803F48003B3F506
:10D35000800F0BD17E4B1B6803F40033002B5BD096
:10D360007B685B68002B57D1012342E27B685B68D6
:10D37000B3F5803F06D1764B1B68754A43F4803382
:10D3800013601DE07B685B68B3F5A02F0CD1704B78
:10D390001B686F4A43F4802313606D4B1B686C4A13
:10D3A00043F4803313600BE0694B1B68684A23F435
:10D3B00080331360664B1B68654A23F48023136037
:10D3C0007B685B68002B13D0FDF77EF8386108E0BE
:10D3D000FDF77AF802463B69D31A642B01D903237F
:10D3E00007E25B4B1B6803F40033002BF0D014E022
:10D3F000FDF76AF8386108E0FDF766F802463B6918
:10D40000D31A642B01D90323F3E1514B1B6803F4B6
:10D410000033002BF0D100E000BF7B681B6803F0F5
:10D420000203002B63D04A4B9B6803F00C03002BD4
:10D430000BD0474B9B6803F00C03082B1CD1444BCB
:10D440005B6803F48003002B16D1414B1B6803F08B
:10D450000203002B05D07B68DB68012B01D0012380
:10D46000C7E13B4B1B6823F0F8027B681B69DB00BC
:10D47000374913430B603AE07B68DB68002B20D010
:10D48000344B01221A60FDF71FF8386108E0FDF700
:10D490001BF802463B69D31A022B01D90323A8E1EA
:10D4A0002B4B1B6803F00203002BF0D0284B1B68AA
:10D4B00023F0F8027B681B69DB00254913430B60EE
:10D4C00015E0244B00221A60FCF7FEFF386108E0EB
:10D4D000FCF7FAFF02463B69D31A022B01D903235A
:10D4E00087E11B4B1B6803F00203002BF0D17B6824
:10D4F0001B6803F00803002B36D07B685B69002BA8
:10D5000016D0154B01221A60FCF7DEFF386108E0E7
:10D51000FCF7DAFF02463B69D31A022B01D9032339
:10D5200067E10B4B5B6F03F00203002BF0D01BE0B5
:10D53000094B00221A60FCF7C7FF38610EE0FCF7C8
:10D54000C3FF02463B69D31A022B07D9032350E1DC
:10D550000038024000004742800E4742884B5B6F14
:10D5600003F00203002BEAD17B681B6803F004037D
:10D57000002B00F097800023FB75814B1B6C03F0A0
:10D580008053002B0FD10023BB607D4B1B6C7C4A6A
:10D5900043F0805313647A4B1B6C03F08053BB60E1
:10D5A000BB680123FB75774B1B6803F48073002B6A
:10D5B00018D1744B1B68734A43F480731360FCF7F3
:10D5C00083FF386108E0FCF77FFF02463B69D31A0E
:10D5D000022B01D903230CE16A4B1B6803F480730F
:10D5E000002BF0D07B689B68012B06D1644B1B6F2E
:10D5F000634A43F0010313671CE07B689B68052BBB
:10D600000CD15F4B1B6F5E4A43F0040313675C4B06
:10D610001B6F5B4A43F0010313670BE0584B1B6F12
:10D62000574A23F001031367554B1B6F544A23F0ED
:10D63000040313677B689B68002B15D0FCF744FF3D
:10D6400038610AE0FCF740FF02463B69D31A41F219
:10D650008832934201D90323CBE0494B1B6F03F07F
:10D660000203002BEED014E0FCF72EFF38610AE035
:10D67000FCF72AFF02463B69D31A41F288329342F3
:10D6800001D90323B5E03E4B1B6F03F00203002BCF
:10D69000EED1FB7D012B05D1394B1B6C384A23F0B1
:10D6A000805313647B689B69002B00F0A180344B8E
:10D6B0009B6803F00C03082B5CD07B689B69022BF2
:10D6C00041D1314B00221A60FCF7FEFE386108E0C0
:10D6D000FCF7FAFE02463B69D31A022B01D9032359
:10D6E00087E0274B1B6803F00073002BF0D17B68A9
:10D6F000DA697B681B6A1A437B685B6A9B011A4381
:10D700007B689B6A5B08013B1B041A437B68DB6AEE
:10D710001B061B4913434B601B4B01221A60FCF78D
:10D72000D3FE386108E0FCF7CFFE02463B69D31A0E
:10D73000022B01D903235CE0114B1B6803F000733B
:10D74000002BF0D054E0104B00221A60FCF7BCFE16
:10D75000386108E0FCF7B8FE02463B69D31A022B99
:10D7600001D9032345E0064B1B6803F00073002B2F
:10D77000F0D13DE07B689B69012B07D1012338E0A4
:10D780000038024000700040600047421B4B5B685D
:10D79000FB607B689B69012B28D0FB6803F4800247
:10D7A0007B68DB699A4221D1FB6803F03F027B680A
:10D7B0001B6A9A421AD1FA6847F6C07313407A6816
:10D7C000526A9201934211D1FB6803F440327B68A4
:10D7D0009B6A5B08013B1B049A4207D1FB6803F07C
:10D7E00070627B68DB6A1B069A4201D0012300E06D
:10D7F000002318461837BD4680BD00BF00380240E0
:10D8000080B584B000AF786039607B68002B01D1AF
:10D810000123CCE0684B1B6803F007033A689A4287
:10D820000CD9654B3A68D2B21A70634B1B6803F08F
:10D8300007033A689A4201D00123B8E07B681B686D
:10D8400003F00203002B20D07B681B6803F0040365
:10D85000002B05D0594B9B68584A43F4E053936022
:10D860007B681B6803F00803002B05D0534B9B68B3
:10D87000524A43F460439360504B9B6823F0F0029C
:10D880007B689B684D4913438B607B681B6803F082
:10D890000103002B44D07B685B68012B07D1474B09
:10D8A0001B6803F40033002B19D101237FE07B6850
:10D8B0005B68022B03D07B685B68032B07D13F4B6F
:10D8C0001B6803F00073002B09D101236FE03B4B71
:10D8D0001B6803F00203002B01D1012367E0374BE3
:10D8E0009B6823F003027B685B68344913438B60B9
:10D8F000FCF7EAFDF8600AE0FCF7E6FD0246FB688B
:10D90000D31A41F28832934201D903234FE02B4BC3
:10D910009B6803F00C027B685B689B009A42EBD12A
:10D92000254B1B6803F007033A689A420CD2224B3E
:10D930003A68D2B21A70204B1B6803F007033A68AA
:10D940009A4201D0012332E07B681B6803F0040394
:10D95000002B08D0194B9B6823F4E0527B68DB68EE
:10D96000164913438B607B681B6803F00803002B88
:10D9700009D0124B9B6823F460427B681B69DB0073
:10D980000E4913438B6000F021F802460B4B9B6855
:10D990001B0903F00F030A49CB5C22FA03F3094A7F
:10D9A0001360094B1B681846FCF74AFD0023184614
:10D9B0001037BD4680BD00BF003C02400038024029
:10D9C000E0620108080000200C0000202DE9B04FA3
:10D9D00094B000AF00237B640023FB6400233B640E
:10D9E0000023BB64794B9B6803F00C03082B0DD01C
:10D9F000082B00F2E180002B02D0042B03D0DBE0E7
:10DA0000734BBB64DBE0734BBB64D8E06F4B5B686C
:10DA100003F03F037B646D4B5B6803F48003002BD2
:10DA200063D06A4B5B689B090022BB63FA63BB6BE4
:10DA3000C3F308033B6300237B63D7E90C4522460D
:10DA40002B464FF000004FF00001590141EAD2612E
:10DA5000500102460B462146511A3961294663EBB3
:10DA600001037B614FF000024FF00003D7E904ABE4
:10DA700059468B01514643EA916351468A0151460A
:10DA8000B2EB0108594663EB01094FF000024FF079
:10DA900000034FEAC90343EA58734FEAC8029046AD
:10DAA0009946234618EB0303BB602B4649EB03035F
:10DAB000FB604FF000024FF00003D7E90245294612
:10DAC0004B02214643EAD15321464A0210461946E9
:10DAD0007B6C0022BB62FA62D7E90A23FBF76CF881
